{
	"contracts/4.draft.sol": {
		"MyDraft": {
			"abi": [
				{
					"inputs": [],
					"name": "readReturn",
					"outputs": [
						{
							"internalType": "uint256",
							"name": "_number",
							"type": "uint256"
						},
						{
							"internalType": "bool",
							"name": "_bool",
							"type": "bool"
						},
						{
							"internalType": "bool",
							"name": "_bool2",
							"type": "bool"
						}
					],
					"stateMutability": "pure",
					"type": "function"
				},
				{
					"inputs": [],
					"name": "returnMultiple",
					"outputs": [
						{
							"internalType": "uint256",
							"name": "",
							"type": "uint256"
						},
						{
							"internalType": "bool",
							"name": "",
							"type": "bool"
						},
						{
							"internalType": "uint256[3]",
							"name": "",
							"type": "uint256[3]"
						}
					],
					"stateMutability": "pure",
					"type": "function"
				},
				{
					"inputs": [],
					"name": "returnNamed",
					"outputs": [
						{
							"internalType": "uint256",
							"name": "_number",
							"type": "uint256"
						},
						{
							"internalType": "bool",
							"name": "_bool",
							"type": "bool"
						},
						{
							"internalType": "uint256[3]",
							"name": "_array",
							"type": "uint256[3]"
						}
					],
					"stateMutability": "pure",
					"type": "function"
				},
				{
					"inputs": [],
					"name": "returnNamed2",
					"outputs": [
						{
							"internalType": "uint256",
							"name": "_number",
							"type": "uint256"
						},
						{
							"internalType": "bool",
							"name": "_bool",
							"type": "bool"
						},
						{
							"internalType": "uint256[3]",
							"name": "_array",
							"type": "uint256[3]"
						}
					],
					"stateMutability": "pure",
					"type": "function"
				}
			],
			"devdoc": {
				"kind": "dev",
				"methods": {},
				"version": 1
			},
			"evm": {
				"assembly": "    /* \"contracts/4.draft.sol\":70:1115  contract MyDraft {... */\n  mstore(0x40, 0x80)\n  callvalue\n  dup1\n  iszero\n  tag_1\n  jumpi\n  0x00\n  dup1\n  revert\ntag_1:\n  pop\n  dataSize(sub_0)\n  dup1\n  dataOffset(sub_0)\n  0x00\n  codecopy\n  0x00\n  return\nstop\n\nsub_0: assembly {\n        /* \"contracts/4.draft.sol\":70:1115  contract MyDraft {... */\n      mstore(0x40, 0x80)\n      callvalue\n      dup1\n      iszero\n      tag_1\n      jumpi\n      0x00\n      dup1\n      revert\n    tag_1:\n      pop\n      jumpi(tag_2, lt(calldatasize, 0x04))\n      shr(0xe0, calldataload(0x00))\n      dup1\n      0x3dece511\n      eq\n      tag_3\n      jumpi\n      dup1\n      0x6f590330\n      eq\n      tag_4\n      jumpi\n      dup1\n      0x8552dc08\n      eq\n      tag_5\n      jumpi\n      dup1\n      0xe61e4008\n      eq\n      tag_6\n      jumpi\n    tag_2:\n      0x00\n      dup1\n      revert\n        /* \"contracts/4.draft.sol\":356:617  function returnNamed()... */\n    tag_3:\n      tag_7\n      tag_8\n      jump\t// in\n    tag_7:\n      mload(0x40)\n      tag_9\n      swap4\n      swap3\n      swap2\n      swap1\n      tag_10\n      jump\t// in\n    tag_9:\n      mload(0x40)\n      dup1\n      swap2\n      sub\n      swap1\n      return\n        /* \"contracts/4.draft.sol\":900:1113  function readReturn() public pure returns (uint256 _number,bool _bool, bool _bool2) {... */\n    tag_4:\n      tag_11\n      tag_12\n      jump\t// in\n    tag_11:\n      mload(0x40)\n      tag_13\n      swap4\n      swap3\n      swap2\n      swap1\n      tag_14\n      jump\t// in\n    tag_13:\n      mload(0x40)\n      dup1\n      swap2\n      sub\n      swap1\n      return\n        /* \"contracts/4.draft.sol\":667:894  function returnNamed2()... */\n    tag_5:\n      tag_15\n      tag_16\n      jump\t// in\n    tag_15:\n      mload(0x40)\n      tag_17\n      swap4\n      swap3\n      swap2\n      swap1\n      tag_10\n      jump\t// in\n    tag_17:\n      mload(0x40)\n      dup1\n      swap2\n      sub\n      swap1\n      return\n        /* \"contracts/4.draft.sol\":119:327  function returnMultiple()... */\n    tag_6:\n      tag_18\n      tag_19\n      jump\t// in\n    tag_18:\n      mload(0x40)\n      tag_20\n      swap4\n      swap3\n      swap2\n      swap1\n      tag_10\n      jump\t// in\n    tag_20:\n      mload(0x40)\n      dup1\n      swap2\n      sub\n      swap1\n      return\n        /* \"contracts/4.draft.sol\":356:617  function returnNamed()... */\n    tag_8:\n        /* \"contracts/4.draft.sol\":437:452  uint256 _number */\n      0x00\n        /* \"contracts/4.draft.sol\":466:476  bool _bool */\n      dup1\n        /* \"contracts/4.draft.sol\":490:514  uint256[3] memory _array */\n      tag_21\n      tag_22\n      jump\t// in\n    tag_21:\n        /* \"contracts/4.draft.sol\":549:550  2 */\n      0x02\n        /* \"contracts/4.draft.sol\":539:550  _number = 2 */\n      swap3\n      pop\n        /* \"contracts/4.draft.sol\":568:573  false */\n      0x00\n        /* \"contracts/4.draft.sol\":560:573  _bool = false */\n      swap2\n      pop\n        /* \"contracts/4.draft.sol\":583:610  _array = [uint256(3), 2, 1] */\n      mload(0x40)\n      dup1\n      0x60\n      add\n      0x40\n      mstore\n      dup1\n        /* \"contracts/4.draft.sol\":601:602  3 */\n      0x03\n        /* \"contracts/4.draft.sol\":583:610  _array = [uint256(3), 2, 1] */\n      dup2\n      mstore\n      0x20\n      add\n        /* \"contracts/4.draft.sol\":605:606  2 */\n      0x02\n        /* \"contracts/4.draft.sol\":583:610  _array = [uint256(3), 2, 1] */\n      dup2\n      mstore\n      0x20\n      add\n        /* \"contracts/4.draft.sol\":608:609  1 */\n      0x01\n        /* \"contracts/4.draft.sol\":583:610  _array = [uint256(3), 2, 1] */\n      dup2\n      mstore\n      pop\n      swap1\n      pop\n        /* \"contracts/4.draft.sol\":356:617  function returnNamed()... */\n      swap1\n      swap2\n      swap3\n      jump\t// out\n        /* \"contracts/4.draft.sol\":900:1113  function readReturn() public pure returns (uint256 _number,bool _bool, bool _bool2) {... */\n    tag_12:\n        /* \"contracts/4.draft.sol\":943:958  uint256 _number */\n      0x00\n        /* \"contracts/4.draft.sol\":959:969  bool _bool */\n      dup1\n        /* \"contracts/4.draft.sol\":971:982  bool _bool2 */\n      0x00\n        /* \"contracts/4.draft.sol\":994:1018  uint256[3] memory _array */\n      tag_25\n      tag_22\n      jump\t// in\n    tag_25:\n        /* \"contracts/4.draft.sol\":1055:1068  returnNamed() */\n      tag_26\n        /* \"contracts/4.draft.sol\":1055:1066  returnNamed */\n      tag_8\n        /* \"contracts/4.draft.sol\":1055:1068  returnNamed() */\n      jump\t// in\n    tag_26:\n        /* \"contracts/4.draft.sol\":1028:1068  (_number, _bool, _array) = returnNamed() */\n      dup1\n      swap4\n      pop\n      dup2\n      swap6\n      pop\n      dup3\n      swap7\n      pop\n      pop\n      pop\n      pop\n        /* \"contracts/4.draft.sol\":1093:1106  returnNamed() */\n      tag_27\n        /* \"contracts/4.draft.sol\":1093:1104  returnNamed */\n      tag_8\n        /* \"contracts/4.draft.sol\":1093:1106  returnNamed() */\n      jump\t// in\n    tag_27:\n        /* \"contracts/4.draft.sol\":1078:1106  (, _bool2, ) = returnNamed() */\n      swap1\n      swap2\n      pop\n      pop\n      dup1\n      swap3\n      pop\n      pop\n        /* \"contracts/4.draft.sol\":984:1113  {... */\n      pop\n        /* \"contracts/4.draft.sol\":900:1113  function readReturn() public pure returns (uint256 _number,bool _bool, bool _bool2) {... */\n      swap1\n      swap2\n      swap3\n      jump\t// out\n        /* \"contracts/4.draft.sol\":667:894  function returnNamed2()... */\n    tag_16:\n        /* \"contracts/4.draft.sol\":749:764  uint256 _number */\n      0x00\n        /* \"contracts/4.draft.sol\":778:788  bool _bool */\n      dup1\n        /* \"contracts/4.draft.sol\":802:826  uint256[3] memory _array */\n      tag_28\n      tag_22\n      jump\t// in\n    tag_28:\n        /* \"contracts/4.draft.sol\":859:860  1 */\n      0x01\n        /* \"contracts/4.draft.sol\":862:866  true */\n      dup1\n        /* \"contracts/4.draft.sol\":851:887  return (1, true, [uint256(1), 2, 5]) */\n      mload(0x40)\n      dup1\n      0x60\n      add\n      0x40\n      mstore\n      dup1\n        /* \"contracts/4.draft.sol\":877:878  1 */\n      0x01\n        /* \"contracts/4.draft.sol\":851:887  return (1, true, [uint256(1), 2, 5]) */\n      dup2\n      mstore\n      0x20\n      add\n        /* \"contracts/4.draft.sol\":881:882  2 */\n      0x02\n        /* \"contracts/4.draft.sol\":851:887  return (1, true, [uint256(1), 2, 5]) */\n      dup2\n      mstore\n      0x20\n      add\n        /* \"contracts/4.draft.sol\":884:885  5 */\n      0x05\n        /* \"contracts/4.draft.sol\":851:887  return (1, true, [uint256(1), 2, 5]) */\n      dup2\n      mstore\n      pop\n      swap3\n      pop\n      swap3\n      pop\n      swap3\n      pop\n        /* \"contracts/4.draft.sol\":667:894  function returnNamed2()... */\n      swap1\n      swap2\n      swap3\n      jump\t// out\n        /* \"contracts/4.draft.sol\":119:327  function returnMultiple()... */\n    tag_19:\n        /* \"contracts/4.draft.sol\":203:210  uint256 */\n      0x00\n        /* \"contracts/4.draft.sol\":224:228  bool */\n      dup1\n        /* \"contracts/4.draft.sol\":242:259  uint256[3] memory */\n      tag_30\n      tag_22\n      jump\t// in\n    tag_30:\n        /* \"contracts/4.draft.sol\":292:293  1 */\n      0x01\n        /* \"contracts/4.draft.sol\":295:299  true */\n      dup1\n        /* \"contracts/4.draft.sol\":284:320  return (1, true, [uint256(1), 2, 5]) */\n      mload(0x40)\n      dup1\n      0x60\n      add\n      0x40\n      mstore\n      dup1\n        /* \"contracts/4.draft.sol\":310:311  1 */\n      0x01\n        /* \"contracts/4.draft.sol\":284:320  return (1, true, [uint256(1), 2, 5]) */\n      dup2\n      mstore\n      0x20\n      add\n        /* \"contracts/4.draft.sol\":314:315  2 */\n      0x02\n        /* \"contracts/4.draft.sol\":284:320  return (1, true, [uint256(1), 2, 5]) */\n      dup2\n      mstore\n      0x20\n      add\n        /* \"contracts/4.draft.sol\":317:318  5 */\n      0x05\n        /* \"contracts/4.draft.sol\":284:320  return (1, true, [uint256(1), 2, 5]) */\n      dup2\n      mstore\n      pop\n      swap3\n      pop\n      swap3\n      pop\n      swap3\n      pop\n        /* \"contracts/4.draft.sol\":119:327  function returnMultiple()... */\n      swap1\n      swap2\n      swap3\n      jump\t// out\n    tag_22:\n      mload(0x40)\n      dup1\n      0x60\n      add\n      0x40\n      mstore\n      dup1\n      0x03\n      swap1\n      0x20\n      dup3\n      mul\n      dup1\n      calldatasize\n      dup4\n      calldatacopy\n      dup1\n      dup3\n      add\n      swap2\n      pop\n      pop\n      swap1\n      pop\n      pop\n      swap1\n      jump\t// out\n        /* \"#utility.yul\":7:84   */\n    tag_32:\n        /* \"#utility.yul\":44:51   */\n      0x00\n        /* \"#utility.yul\":73:78   */\n      dup2\n        /* \"#utility.yul\":62:78   */\n      swap1\n      pop\n        /* \"#utility.yul\":7:84   */\n      swap2\n      swap1\n      pop\n      jump\t// out\n        /* \"#utility.yul\":90:208   */\n    tag_33:\n        /* \"#utility.yul\":177:201   */\n      tag_46\n        /* \"#utility.yul\":195:200   */\n      dup2\n        /* \"#utility.yul\":177:201   */\n      tag_32\n      jump\t// in\n    tag_46:\n        /* \"#utility.yul\":172:175   */\n      dup3\n        /* \"#utility.yul\":165:202   */\n      mstore\n        /* \"#utility.yul\":90:208   */\n      pop\n      pop\n      jump\t// out\n        /* \"#utility.yul\":214:304   */\n    tag_34:\n        /* \"#utility.yul\":248:255   */\n      0x00\n        /* \"#utility.yul\":291:296   */\n      dup2\n        /* \"#utility.yul\":284:297   */\n      iszero\n        /* \"#utility.yul\":277:298   */\n      iszero\n        /* \"#utility.yul\":266:298   */\n      swap1\n      pop\n        /* \"#utility.yul\":214:304   */\n      swap2\n      swap1\n      pop\n      jump\t// out\n        /* \"#utility.yul\":310:419   */\n    tag_35:\n        /* \"#utility.yul\":391:412   */\n      tag_49\n        /* \"#utility.yul\":406:411   */\n      dup2\n        /* \"#utility.yul\":391:412   */\n      tag_34\n      jump\t// in\n    tag_49:\n        /* \"#utility.yul\":386:389   */\n      dup3\n        /* \"#utility.yul\":379:413   */\n      mstore\n        /* \"#utility.yul\":310:419   */\n      pop\n      pop\n      jump\t// out\n        /* \"#utility.yul\":425:529   */\n    tag_36:\n        /* \"#utility.yul\":490:496   */\n      0x00\n        /* \"#utility.yul\":518:522   */\n      0x03\n        /* \"#utility.yul\":508:522   */\n      swap1\n      pop\n        /* \"#utility.yul\":425:529   */\n      swap2\n      swap1\n      pop\n      jump\t// out\n        /* \"#utility.yul\":535:678   */\n    tag_37:\n        /* \"#utility.yul\":632:643   */\n      0x00\n        /* \"#utility.yul\":669:672   */\n      dup2\n        /* \"#utility.yul\":654:672   */\n      swap1\n      pop\n        /* \"#utility.yul\":535:678   */\n      swap3\n      swap2\n      pop\n      pop\n      jump\t// out\n        /* \"#utility.yul\":684:782   */\n    tag_38:\n        /* \"#utility.yul\":749:753   */\n      0x00\n        /* \"#utility.yul\":772:775   */\n      dup2\n        /* \"#utility.yul\":764:775   */\n      swap1\n      pop\n        /* \"#utility.yul\":684:782   */\n      swap2\n      swap1\n      pop\n      jump\t// out\n        /* \"#utility.yul\":788:896   */\n    tag_39:\n        /* \"#utility.yul\":865:889   */\n      tag_54\n        /* \"#utility.yul\":883:888   */\n      dup2\n        /* \"#utility.yul\":865:889   */\n      tag_32\n      jump\t// in\n    tag_54:\n        /* \"#utility.yul\":860:863   */\n      dup3\n        /* \"#utility.yul\":853:890   */\n      mstore\n        /* \"#utility.yul\":788:896   */\n      pop\n      pop\n      jump\t// out\n        /* \"#utility.yul\":902:1081   */\n    tag_40:\n        /* \"#utility.yul\":971:981   */\n      0x00\n        /* \"#utility.yul\":992:1038   */\n      tag_56\n        /* \"#utility.yul\":1034:1037   */\n      dup4\n        /* \"#utility.yul\":1026:1032   */\n      dup4\n        /* \"#utility.yul\":992:1038   */\n      tag_39\n      jump\t// in\n    tag_56:\n        /* \"#utility.yul\":1070:1074   */\n      0x20\n        /* \"#utility.yul\":1065:1068   */\n      dup4\n        /* \"#utility.yul\":1061:1075   */\n      add\n        /* \"#utility.yul\":1047:1075   */\n      swap1\n      pop\n        /* \"#utility.yul\":902:1081   */\n      swap3\n      swap2\n      pop\n      pop\n      jump\t// out\n        /* \"#utility.yul\":1087:1198   */\n    tag_41:\n        /* \"#utility.yul\":1155:1159   */\n      0x00\n        /* \"#utility.yul\":1187:1191   */\n      0x20\n        /* \"#utility.yul\":1182:1185   */\n      dup3\n        /* \"#utility.yul\":1178:1192   */\n      add\n        /* \"#utility.yul\":1170:1192   */\n      swap1\n      pop\n        /* \"#utility.yul\":1087:1198   */\n      swap2\n      swap1\n      pop\n      jump\t// out\n        /* \"#utility.yul\":1236:1930   */\n    tag_42:\n        /* \"#utility.yul\":1372:1424   */\n      tag_59\n        /* \"#utility.yul\":1418:1423   */\n      dup2\n        /* \"#utility.yul\":1372:1424   */\n      tag_36\n      jump\t// in\n    tag_59:\n        /* \"#utility.yul\":1440:1524   */\n      tag_60\n        /* \"#utility.yul\":1517:1523   */\n      dup2\n        /* \"#utility.yul\":1512:1515   */\n      dup5\n        /* \"#utility.yul\":1440:1524   */\n      tag_37\n      jump\t// in\n    tag_60:\n        /* \"#utility.yul\":1433:1524   */\n      swap3\n      pop\n        /* \"#utility.yul\":1548:1602   */\n      tag_61\n        /* \"#utility.yul\":1596:1601   */\n      dup3\n        /* \"#utility.yul\":1548:1602   */\n      tag_38\n      jump\t// in\n    tag_61:\n        /* \"#utility.yul\":1625:1632   */\n      dup1\n        /* \"#utility.yul\":1656:1657   */\n      0x00\n        /* \"#utility.yul\":1641:1923   */\n    tag_62:\n        /* \"#utility.yul\":1666:1672   */\n      dup4\n        /* \"#utility.yul\":1663:1664   */\n      dup2\n        /* \"#utility.yul\":1660:1673   */\n      lt\n        /* \"#utility.yul\":1641:1923   */\n      iszero\n      tag_64\n      jumpi\n        /* \"#utility.yul\":1742:1748   */\n      dup2\n        /* \"#utility.yul\":1736:1749   */\n      mload\n        /* \"#utility.yul\":1769:1832   */\n      tag_65\n        /* \"#utility.yul\":1828:1831   */\n      dup8\n        /* \"#utility.yul\":1813:1826   */\n      dup3\n        /* \"#utility.yul\":1769:1832   */\n      tag_40\n      jump\t// in\n    tag_65:\n        /* \"#utility.yul\":1762:1832   */\n      swap7\n      pop\n        /* \"#utility.yul\":1855:1913   */\n      tag_66\n        /* \"#utility.yul\":1906:1912   */\n      dup4\n        /* \"#utility.yul\":1855:1913   */\n      tag_41\n      jump\t// in\n    tag_66:\n        /* \"#utility.yul\":1845:1913   */\n      swap3\n      pop\n        /* \"#utility.yul\":1701:1923   */\n      pop\n        /* \"#utility.yul\":1688:1689   */\n      0x01\n        /* \"#utility.yul\":1685:1686   */\n      dup2\n        /* \"#utility.yul\":1681:1690   */\n      add\n        /* \"#utility.yul\":1676:1690   */\n      swap1\n      pop\n        /* \"#utility.yul\":1641:1923   */\n      jump(tag_62)\n    tag_64:\n        /* \"#utility.yul\":1645:1659   */\n      pop\n        /* \"#utility.yul\":1348:1930   */\n      pop\n      pop\n      pop\n        /* \"#utility.yul\":1236:1930   */\n      pop\n      pop\n      jump\t// out\n        /* \"#utility.yul\":1936:2459   */\n    tag_10:\n        /* \"#utility.yul\":2125:2129   */\n      0x00\n        /* \"#utility.yul\":2163:2166   */\n      0xa0\n        /* \"#utility.yul\":2152:2161   */\n      dup3\n        /* \"#utility.yul\":2148:2167   */\n      add\n        /* \"#utility.yul\":2140:2167   */\n      swap1\n      pop\n        /* \"#utility.yul\":2177:2248   */\n      tag_68\n        /* \"#utility.yul\":2245:2246   */\n      0x00\n        /* \"#utility.yul\":2234:2243   */\n      dup4\n        /* \"#utility.yul\":2230:2247   */\n      add\n        /* \"#utility.yul\":2221:2227   */\n      dup7\n        /* \"#utility.yul\":2177:2248   */\n      tag_33\n      jump\t// in\n    tag_68:\n        /* \"#utility.yul\":2258:2324   */\n      tag_69\n        /* \"#utility.yul\":2320:2322   */\n      0x20\n        /* \"#utility.yul\":2309:2318   */\n      dup4\n        /* \"#utility.yul\":2305:2323   */\n      add\n        /* \"#utility.yul\":2296:2302   */\n      dup6\n        /* \"#utility.yul\":2258:2324   */\n      tag_35\n      jump\t// in\n    tag_69:\n        /* \"#utility.yul\":2334:2452   */\n      tag_70\n        /* \"#utility.yul\":2448:2450   */\n      0x40\n        /* \"#utility.yul\":2437:2446   */\n      dup4\n        /* \"#utility.yul\":2433:2451   */\n      add\n        /* \"#utility.yul\":2424:2430   */\n      dup5\n        /* \"#utility.yul\":2334:2452   */\n      tag_42\n      jump\t// in\n    tag_70:\n        /* \"#utility.yul\":1936:2459   */\n      swap5\n      swap4\n      pop\n      pop\n      pop\n      pop\n      jump\t// out\n        /* \"#utility.yul\":2465:2883   */\n    tag_14:\n        /* \"#utility.yul\":2602:2606   */\n      0x00\n        /* \"#utility.yul\":2640:2642   */\n      0x60\n        /* \"#utility.yul\":2629:2638   */\n      dup3\n        /* \"#utility.yul\":2625:2643   */\n      add\n        /* \"#utility.yul\":2617:2643   */\n      swap1\n      pop\n        /* \"#utility.yul\":2653:2724   */\n      tag_72\n        /* \"#utility.yul\":2721:2722   */\n      0x00\n        /* \"#utility.yul\":2710:2719   */\n      dup4\n        /* \"#utility.yul\":2706:2723   */\n      add\n        /* \"#utility.yul\":2697:2703   */\n      dup7\n        /* \"#utility.yul\":2653:2724   */\n      tag_33\n      jump\t// in\n    tag_72:\n        /* \"#utility.yul\":2734:2800   */\n      tag_73\n        /* \"#utility.yul\":2796:2798   */\n      0x20\n        /* \"#utility.yul\":2785:2794   */\n      dup4\n        /* \"#utility.yul\":2781:2799   */\n      add\n        /* \"#utility.yul\":2772:2778   */\n      dup6\n        /* \"#utility.yul\":2734:2800   */\n      tag_35\n      jump\t// in\n    tag_73:\n        /* \"#utility.yul\":2810:2876   */\n      tag_74\n        /* \"#utility.yul\":2872:2874   */\n      0x40\n        /* \"#utility.yul\":2861:2870   */\n      dup4\n        /* \"#utility.yul\":2857:2875   */\n      add\n        /* \"#utility.yul\":2848:2854   */\n      dup5\n        /* \"#utility.yul\":2810:2876   */\n      tag_35\n      jump\t// in\n    tag_74:\n        /* \"#utility.yul\":2465:2883   */\n      swap5\n      swap4\n      pop\n      pop\n      pop\n      pop\n      jump\t// out\n\n    auxdata: 0xa2646970667358221220795fb4fc016bca3ea5b531fcebea9c01ab0739ed27c3dd56206ea38c92ca8c9264736f6c634300081a0033\n}\n",
				"bytecode": {
					"linkReferences": {},
					"object": "6080604052348015600e575f80fd5b5061033e8061001c5f395ff3fe608060405234801561000f575f80fd5b506004361061004a575f3560e01c80633dece5111461004e5780636f5903301461006e5780638552dc081461008e578063e61e4008146100ae575b5f80fd5b6100566100ce565b6040516100659392919061029e565b60405180910390f35b610076610104565b604051610085939291906102d3565b60405180910390f35b610096610139565b6040516100a59392919061029e565b60405180910390f35b6100b661016f565b6040516100c59392919061029e565b60405180910390f35b5f806100d86101a5565b600292505f91506040518060600160405280600381526020016002815260200160018152509050909192565b5f805f61010f6101a5565b6101176100ce565b80935081955082965050505061012b6100ce565b909150508092505050909192565b5f806101436101a5565b600180604051806060016040528060018152602001600281526020016005815250925092509250909192565b5f806101796101a5565b600180604051806060016040528060018152602001600281526020016005815250925092509250909192565b6040518060600160405280600390602082028036833780820191505090505090565b5f819050919050565b6101d9816101c7565b82525050565b5f8115159050919050565b6101f3816101df565b82525050565b5f60039050919050565b5f81905092915050565b5f819050919050565b61021f816101c7565b82525050565b5f6102308383610216565b60208301905092915050565b5f602082019050919050565b610251816101f9565b61025b8184610203565b92506102668261020d565b805f5b8381101561029657815161027d8782610225565b96506102888361023c565b925050600181019050610269565b505050505050565b5f60a0820190506102b15f8301866101d0565b6102be60208301856101ea565b6102cb6040830184610248565b949350505050565b5f6060820190506102e65f8301866101d0565b6102f360208301856101ea565b61030060408301846101ea565b94935050505056fea2646970667358221220795fb4fc016bca3ea5b531fcebea9c01ab0739ed27c3dd56206ea38c92ca8c9264736f6c634300081a0033",
					"opcodes": "PUSH1 0x80 PUSH1 0x40 MSTORE CALLVALUE DUP1 ISZERO PUSH1 0xE JUMPI PUSH0 DUP1 REVERT JUMPDEST POP PUSH2 0x33E DUP1 PUSH2 0x1C PUSH0 CODECOPY PUSH0 RETURN INVALID PUSH1 0x80 PUSH1 0x40 MSTORE CALLVALUE DUP1 ISZERO PUSH2 0xF JUMPI PUSH0 DUP1 REVERT JUMPDEST POP PUSH1 0x4 CALLDATASIZE LT PUSH2 0x4A JUMPI PUSH0 CALLDATALOAD PUSH1 0xE0 SHR DUP1 PUSH4 0x3DECE511 EQ PUSH2 0x4E JUMPI DUP1 PUSH4 0x6F590330 EQ PUSH2 0x6E JUMPI DUP1 PUSH4 0x8552DC08 EQ PUSH2 0x8E JUMPI DUP1 PUSH4 0xE61E4008 EQ PUSH2 0xAE JUMPI JUMPDEST PUSH0 DUP1 REVERT JUMPDEST PUSH2 0x56 PUSH2 0xCE JUMP JUMPDEST PUSH1 0x40 MLOAD PUSH2 0x65 SWAP4 SWAP3 SWAP2 SWAP1 PUSH2 0x29E JUMP JUMPDEST PUSH1 0x40 MLOAD DUP1 SWAP2 SUB SWAP1 RETURN JUMPDEST PUSH2 0x76 PUSH2 0x104 JUMP JUMPDEST PUSH1 0x40 MLOAD PUSH2 0x85 SWAP4 SWAP3 SWAP2 SWAP1 PUSH2 0x2D3 JUMP JUMPDEST PUSH1 0x40 MLOAD DUP1 SWAP2 SUB SWAP1 RETURN JUMPDEST PUSH2 0x96 PUSH2 0x139 JUMP JUMPDEST PUSH1 0x40 MLOAD PUSH2 0xA5 SWAP4 SWAP3 SWAP2 SWAP1 PUSH2 0x29E JUMP JUMPDEST PUSH1 0x40 MLOAD DUP1 SWAP2 SUB SWAP1 RETURN JUMPDEST PUSH2 0xB6 PUSH2 0x16F JUMP JUMPDEST PUSH1 0x40 MLOAD PUSH2 0xC5 SWAP4 SWAP3 SWAP2 SWAP1 PUSH2 0x29E JUMP JUMPDEST PUSH1 0x40 MLOAD DUP1 SWAP2 SUB SWAP1 RETURN JUMPDEST PUSH0 DUP1 PUSH2 0xD8 PUSH2 0x1A5 JUMP JUMPDEST PUSH1 0x2 SWAP3 POP PUSH0 SWAP2 POP PUSH1 0x40 MLOAD DUP1 PUSH1 0x60 ADD PUSH1 0x40 MSTORE DUP1 PUSH1 0x3 DUP2 MSTORE PUSH1 0x20 ADD PUSH1 0x2 DUP2 MSTORE PUSH1 0x20 ADD PUSH1 0x1 DUP2 MSTORE POP SWAP1 POP SWAP1 SWAP2 SWAP3 JUMP JUMPDEST PUSH0 DUP1 PUSH0 PUSH2 0x10F PUSH2 0x1A5 JUMP JUMPDEST PUSH2 0x117 PUSH2 0xCE JUMP JUMPDEST DUP1 SWAP4 POP DUP2 SWAP6 POP DUP3 SWAP7 POP POP POP POP PUSH2 0x12B PUSH2 0xCE JUMP JUMPDEST SWAP1 SWAP2 POP POP DUP1 SWAP3 POP POP POP SWAP1 SWAP2 SWAP3 JUMP JUMPDEST PUSH0 DUP1 PUSH2 0x143 PUSH2 0x1A5 JUMP JUMPDEST PUSH1 0x1 DUP1 PUSH1 0x40 MLOAD DUP1 PUSH1 0x60 ADD PUSH1 0x40 MSTORE DUP1 PUSH1 0x1 DUP2 MSTORE PUSH1 0x20 ADD PUSH1 0x2 DUP2 MSTORE PUSH1 0x20 ADD PUSH1 0x5 DUP2 MSTORE POP SWAP3 POP SWAP3 POP SWAP3 POP SWAP1 SWAP2 SWAP3 JUMP JUMPDEST PUSH0 DUP1 PUSH2 0x179 PUSH2 0x1A5 JUMP JUMPDEST PUSH1 0x1 DUP1 PUSH1 0x40 MLOAD DUP1 PUSH1 0x60 ADD PUSH1 0x40 MSTORE DUP1 PUSH1 0x1 DUP2 MSTORE PUSH1 0x20 ADD PUSH1 0x2 DUP2 MSTORE PUSH1 0x20 ADD PUSH1 0x5 DUP2 MSTORE POP SWAP3 POP SWAP3 POP SWAP3 POP SWAP1 SWAP2 SWAP3 JUMP JUMPDEST PUSH1 0x40 MLOAD DUP1 PUSH1 0x60 ADD PUSH1 0x40 MSTORE DUP1 PUSH1 0x3 SWAP1 PUSH1 0x20 DUP3 MUL DUP1 CALLDATASIZE DUP4 CALLDATACOPY DUP1 DUP3 ADD SWAP2 POP POP SWAP1 POP POP SWAP1 JUMP JUMPDEST PUSH0 DUP2 SWAP1 POP SWAP2 SWAP1 POP JUMP JUMPDEST PUSH2 0x1D9 DUP2 PUSH2 0x1C7 JUMP JUMPDEST DUP3 MSTORE POP POP JUMP JUMPDEST PUSH0 DUP2 ISZERO ISZERO SWAP1 POP SWAP2 SWAP1 POP JUMP JUMPDEST PUSH2 0x1F3 DUP2 PUSH2 0x1DF JUMP JUMPDEST DUP3 MSTORE POP POP JUMP JUMPDEST PUSH0 PUSH1 0x3 SWAP1 POP SWAP2 SWAP1 POP JUMP JUMPDEST PUSH0 DUP2 SWAP1 POP SWAP3 SWAP2 POP POP JUMP JUMPDEST PUSH0 DUP2 SWAP1 POP SWAP2 SWAP1 POP JUMP JUMPDEST PUSH2 0x21F DUP2 PUSH2 0x1C7 JUMP JUMPDEST DUP3 MSTORE POP POP JUMP JUMPDEST PUSH0 PUSH2 0x230 DUP4 DUP4 PUSH2 0x216 JUMP JUMPDEST PUSH1 0x20 DUP4 ADD SWAP1 POP SWAP3 SWAP2 POP POP JUMP JUMPDEST PUSH0 PUSH1 0x20 DUP3 ADD SWAP1 POP SWAP2 SWAP1 POP JUMP JUMPDEST PUSH2 0x251 DUP2 PUSH2 0x1F9 JUMP JUMPDEST PUSH2 0x25B DUP2 DUP5 PUSH2 0x203 JUMP JUMPDEST SWAP3 POP PUSH2 0x266 DUP3 PUSH2 0x20D JUMP JUMPDEST DUP1 PUSH0 JUMPDEST DUP4 DUP2 LT ISZERO PUSH2 0x296 JUMPI DUP2 MLOAD PUSH2 0x27D DUP8 DUP3 PUSH2 0x225 JUMP JUMPDEST SWAP7 POP PUSH2 0x288 DUP4 PUSH2 0x23C JUMP JUMPDEST SWAP3 POP POP PUSH1 0x1 DUP2 ADD SWAP1 POP PUSH2 0x269 JUMP JUMPDEST POP POP POP POP POP POP JUMP JUMPDEST PUSH0 PUSH1 0xA0 DUP3 ADD SWAP1 POP PUSH2 0x2B1 PUSH0 DUP4 ADD DUP7 PUSH2 0x1D0 JUMP JUMPDEST PUSH2 0x2BE PUSH1 0x20 DUP4 ADD DUP6 PUSH2 0x1EA JUMP JUMPDEST PUSH2 0x2CB PUSH1 0x40 DUP4 ADD DUP5 PUSH2 0x248 JUMP JUMPDEST SWAP5 SWAP4 POP POP POP POP JUMP JUMPDEST PUSH0 PUSH1 0x60 DUP3 ADD SWAP1 POP PUSH2 0x2E6 PUSH0 DUP4 ADD DUP7 PUSH2 0x1D0 JUMP JUMPDEST PUSH2 0x2F3 PUSH1 0x20 DUP4 ADD DUP6 PUSH2 0x1EA JUMP JUMPDEST PUSH2 0x300 PUSH1 0x40 DUP4 ADD DUP5 PUSH2 0x1EA JUMP JUMPDEST SWAP5 SWAP4 POP POP POP POP JUMP INVALID LOG2 PUSH5 0x6970667358 0x22 SLT KECCAK256 PUSH26 0x5FB4FC016BCA3EA5B531FCEBEA9C01AB0739ED27C3DD56206EA3 DUP13 SWAP3 0xCA DUP13 SWAP3 PUSH5 0x736F6C6343 STOP ADDMOD BYTE STOP CALLER "
				},
				"gasEstimates": {
					"creation": {
						"codeDepositCost": "166000",
						"executionCost": "206",
						"totalCost": "166206"
					},
					"external": {
						"readReturn()": "infinite",
						"returnMultiple()": "infinite",
						"returnNamed()": "infinite",
						"returnNamed2()": "infinite"
					}
				},
				"methodIdentifiers": {
					"readReturn()": "6f590330",
					"returnMultiple()": "e61e4008",
					"returnNamed()": "3dece511",
					"returnNamed2()": "8552dc08"
				}
			},
			"storageLayout": {
				"storage": [],
				"types": null
			},
			"userdoc": {
				"kind": "user",
				"methods": {},
				"version": 1
			}
		}
	}
}