{
	"contracts/draft.sol": {
		"MyDraft": {
			"abi": [
				{
					"inputs": [],
					"name": "_int",
					"outputs": [
						{
							"internalType": "int256",
							"name": "",
							"type": "int256"
						}
					],
					"stateMutability": "view",
					"type": "function"
				},
				{
					"inputs": [],
					"name": "_number",
					"outputs": [
						{
							"internalType": "uint256",
							"name": "",
							"type": "uint256"
						}
					],
					"stateMutability": "view",
					"type": "function"
				},
				{
					"inputs": [],
					"name": "_number1",
					"outputs": [
						{
							"internalType": "uint256",
							"name": "",
							"type": "uint256"
						}
					],
					"stateMutability": "view",
					"type": "function"
				},
				{
					"inputs": [],
					"name": "_number2",
					"outputs": [
						{
							"internalType": "uint256",
							"name": "",
							"type": "uint256"
						}
					],
					"stateMutability": "view",
					"type": "function"
				},
				{
					"inputs": [],
					"name": "_number3",
					"outputs": [
						{
							"internalType": "uint256",
							"name": "",
							"type": "uint256"
						}
					],
					"stateMutability": "view",
					"type": "function"
				},
				{
					"inputs": [],
					"name": "_numberbool",
					"outputs": [
						{
							"internalType": "bool",
							"name": "",
							"type": "bool"
						}
					],
					"stateMutability": "view",
					"type": "function"
				},
				{
					"inputs": [],
					"name": "_uint",
					"outputs": [
						{
							"internalType": "uint256",
							"name": "",
							"type": "uint256"
						}
					],
					"stateMutability": "view",
					"type": "function"
				},
				{
					"inputs": [],
					"name": "enumToUint",
					"outputs": [
						{
							"internalType": "uint256",
							"name": "",
							"type": "uint256"
						}
					],
					"stateMutability": "view",
					"type": "function"
				}
			],
			"devdoc": {
				"kind": "dev",
				"methods": {},
				"version": 1
			},
			"evm": {
				"assembly": "    /* \"contracts/draft.sol\":101:816  contract MyDraft {... */\n  mstore(0x40, 0x80)\n    /* \"contracts/draft.sol\":156:158  -1 */\n  0xffffffffffffffffffffffffffffffffffffffffffffffffffffffffffffffff\n    /* \"contracts/draft.sol\":138:158  int public _int = -1 */\n  0x00\n  sstore\n    /* \"contracts/draft.sol\":209:210  1 */\n  0x01\n    /* \"contracts/draft.sol\":189:210  uint public _uint = 1 */\n  dup1\n  sstore\n    /* \"contracts/draft.sol\":260:268  20220330 */\n  0x013489aa\n    /* \"contracts/draft.sol\":235:268  uint256 public _number = 20220330 */\n  0x02\n  sstore\n    /* \"contracts/draft.sol\":336:337  1 */\n  0x01\n    /* \"contracts/draft.sol\":326:333  _number */\n  sload(0x02)\n    /* \"contracts/draft.sol\":326:337  _number + 1 */\n  tag_1\n  swap2\n  swap1\n  tag_2\n  jump\t// in\ntag_1:\n    /* \"contracts/draft.sol\":300:337  uint256 public _number1 = _number + 1 */\n  0x03\n  sstore\n    /* \"contracts/draft.sol\":386:390  2**2 */\n  0x04\n    /* \"contracts/draft.sol\":360:390  uint256 public _number2 = 2**2 */\n  dup1\n  sstore\n    /* \"contracts/draft.sol\":432:437  7 % 2 */\n  0x01\n    /* \"contracts/draft.sol\":406:437  uint256 public _number3 = 7 % 2 */\n  0x05\n  sstore\n    /* \"contracts/draft.sol\":493:501  _number3 */\n  sload(0x05)\n    /* \"contracts/draft.sol\":482:490  _number2 */\n  sload(0x04)\n    /* \"contracts/draft.sol\":482:501  _number2 > _number3 */\n  gt\n    /* \"contracts/draft.sol\":456:501  bool public _numberbool = _number2 > _number3 */\n  0x06\n  exp(0x0100, 0x00)\n  dup2\n  sload\n  dup2\n  0xff\n  mul\n  not\n  and\n  swap1\n  dup4\n  iszero\n  iszero\n  mul\n  or\n  swap1\n  sstore\n  pop\n    /* \"contracts/draft.sol\":668:682  ActionSet.Sell */\n  0x02\n    /* \"contracts/draft.sol\":649:682  ActionSet action = ActionSet.Sell */\n  0x06\n  exp(0x0100, 0x01)\n  dup2\n  sload\n  dup2\n  0xff\n  mul\n  not\n  and\n  swap1\n  dup4\n  0x02\n  dup2\n  gt\n  iszero\n  tag_3\n  jumpi\n  tag_4\n  tag_5\n  jump\t// in\ntag_4:\ntag_3:\n  mul\n  or\n  swap1\n  sstore\n  pop\n    /* \"contracts/draft.sol\":101:816  contract MyDraft {... */\n  callvalue\n  dup1\n  iszero\n  tag_6\n  jumpi\n  0x00\n  dup1\n  revert\ntag_6:\n  pop\n  jump(tag_7)\n    /* \"#utility.yul\":7:84   */\ntag_8:\n    /* \"#utility.yul\":44:51   */\n  0x00\n    /* \"#utility.yul\":73:78   */\n  dup2\n    /* \"#utility.yul\":62:78   */\n  swap1\n  pop\n    /* \"#utility.yul\":7:84   */\n  swap2\n  swap1\n  pop\n  jump\t// out\n    /* \"#utility.yul\":90:270   */\ntag_9:\n    /* \"#utility.yul\":138:215   */\n  0x4e487b7100000000000000000000000000000000000000000000000000000000\n    /* \"#utility.yul\":135:136   */\n  0x00\n    /* \"#utility.yul\":128:216   */\n  mstore\n    /* \"#utility.yul\":235:239   */\n  0x11\n    /* \"#utility.yul\":232:233   */\n  0x04\n    /* \"#utility.yul\":225:240   */\n  mstore\n    /* \"#utility.yul\":259:263   */\n  0x24\n    /* \"#utility.yul\":256:257   */\n  0x00\n    /* \"#utility.yul\":249:264   */\n  revert\n    /* \"#utility.yul\":276:467   */\ntag_2:\n    /* \"#utility.yul\":316:319   */\n  0x00\n    /* \"#utility.yul\":335:355   */\n  tag_14\n    /* \"#utility.yul\":353:354   */\n  dup3\n    /* \"#utility.yul\":335:355   */\n  tag_8\n  jump\t// in\ntag_14:\n    /* \"#utility.yul\":330:355   */\n  swap2\n  pop\n    /* \"#utility.yul\":369:389   */\n  tag_15\n    /* \"#utility.yul\":387:388   */\n  dup4\n    /* \"#utility.yul\":369:389   */\n  tag_8\n  jump\t// in\ntag_15:\n    /* \"#utility.yul\":364:389   */\n  swap3\n  pop\n    /* \"#utility.yul\":412:413   */\n  dup3\n    /* \"#utility.yul\":409:410   */\n  dup3\n    /* \"#utility.yul\":405:414   */\n  add\n    /* \"#utility.yul\":398:414   */\n  swap1\n  pop\n    /* \"#utility.yul\":433:436   */\n  dup1\n    /* \"#utility.yul\":430:431   */\n  dup3\n    /* \"#utility.yul\":427:437   */\n  gt\n    /* \"#utility.yul\":424:460   */\n  iszero\n  tag_16\n  jumpi\n    /* \"#utility.yul\":440:458   */\n  tag_17\n  tag_9\n  jump\t// in\ntag_17:\n    /* \"#utility.yul\":424:460   */\ntag_16:\n    /* \"#utility.yul\":276:467   */\n  swap3\n  swap2\n  pop\n  pop\n  jump\t// out\n    /* \"#utility.yul\":473:653   */\ntag_5:\n    /* \"#utility.yul\":521:598   */\n  0x4e487b7100000000000000000000000000000000000000000000000000000000\n    /* \"#utility.yul\":518:519   */\n  0x00\n    /* \"#utility.yul\":511:599   */\n  mstore\n    /* \"#utility.yul\":618:622   */\n  0x21\n    /* \"#utility.yul\":615:616   */\n  0x04\n    /* \"#utility.yul\":608:623   */\n  mstore\n    /* \"#utility.yul\":642:646   */\n  0x24\n    /* \"#utility.yul\":639:640   */\n  0x00\n    /* \"#utility.yul\":632:647   */\n  revert\n    /* \"contracts/draft.sol\":101:816  contract MyDraft {... */\ntag_7:\n  dataSize(sub_0)\n  dup1\n  dataOffset(sub_0)\n  0x00\n  codecopy\n  0x00\n  return\nstop\n\nsub_0: assembly {\n        /* \"contracts/draft.sol\":101:816  contract MyDraft {... */\n      mstore(0x40, 0x80)\n      callvalue\n      dup1\n      iszero\n      tag_1\n      jumpi\n      0x00\n      dup1\n      revert\n    tag_1:\n      pop\n      jumpi(tag_2, lt(calldatasize, 0x04))\n      shr(0xe0, calldataload(0x00))\n      dup1\n      0x6e8d0c9e\n      gt\n      tag_11\n      jumpi\n      dup1\n      0x6e8d0c9e\n      eq\n      tag_7\n      jumpi\n      dup1\n      0xaf45869e\n      eq\n      tag_8\n      jumpi\n      dup1\n      0xe37c6c82\n      eq\n      tag_9\n      jumpi\n      dup1\n      0xf9bd55cc\n      eq\n      tag_10\n      jumpi\n      jump(tag_2)\n    tag_11:\n      dup1\n      0x01019958\n      eq\n      tag_3\n      jumpi\n      dup1\n      0x19bff7df\n      eq\n      tag_4\n      jumpi\n      dup1\n      0x2543135b\n      eq\n      tag_5\n      jumpi\n      dup1\n      0x6b1d2c4e\n      eq\n      tag_6\n      jumpi\n    tag_2:\n      0x00\n      dup1\n      revert\n        /* \"contracts/draft.sol\":729:814  function enumToUint() external view returns(uint){... */\n    tag_3:\n      tag_12\n      tag_13\n      jump\t// in\n    tag_12:\n      mload(0x40)\n      tag_14\n      swap2\n      swap1\n      tag_15\n      jump\t// in\n    tag_14:\n      mload(0x40)\n      dup1\n      swap2\n      sub\n      swap1\n      return\n        /* \"contracts/draft.sol\":406:437  uint256 public _number3 = 7 % 2 */\n    tag_4:\n      tag_16\n      tag_17\n      jump\t// in\n    tag_16:\n      mload(0x40)\n      tag_18\n      swap2\n      swap1\n      tag_15\n      jump\t// in\n    tag_18:\n      mload(0x40)\n      dup1\n      swap2\n      sub\n      swap1\n      return\n        /* \"contracts/draft.sol\":189:210  uint public _uint = 1 */\n    tag_5:\n      tag_19\n      tag_20\n      jump\t// in\n    tag_19:\n      mload(0x40)\n      tag_21\n      swap2\n      swap1\n      tag_15\n      jump\t// in\n    tag_21:\n      mload(0x40)\n      dup1\n      swap2\n      sub\n      swap1\n      return\n        /* \"contracts/draft.sol\":360:390  uint256 public _number2 = 2**2 */\n    tag_6:\n      tag_22\n      tag_23\n      jump\t// in\n    tag_22:\n      mload(0x40)\n      tag_24\n      swap2\n      swap1\n      tag_15\n      jump\t// in\n    tag_24:\n      mload(0x40)\n      dup1\n      swap2\n      sub\n      swap1\n      return\n        /* \"contracts/draft.sol\":300:337  uint256 public _number1 = _number + 1 */\n    tag_7:\n      tag_25\n      tag_26\n      jump\t// in\n    tag_25:\n      mload(0x40)\n      tag_27\n      swap2\n      swap1\n      tag_15\n      jump\t// in\n    tag_27:\n      mload(0x40)\n      dup1\n      swap2\n      sub\n      swap1\n      return\n        /* \"contracts/draft.sol\":138:158  int public _int = -1 */\n    tag_8:\n      tag_28\n      tag_29\n      jump\t// in\n    tag_28:\n      mload(0x40)\n      tag_30\n      swap2\n      swap1\n      tag_31\n      jump\t// in\n    tag_30:\n      mload(0x40)\n      dup1\n      swap2\n      sub\n      swap1\n      return\n        /* \"contracts/draft.sol\":456:501  bool public _numberbool = _number2 > _number3 */\n    tag_9:\n      tag_32\n      tag_33\n      jump\t// in\n    tag_32:\n      mload(0x40)\n      tag_34\n      swap2\n      swap1\n      tag_35\n      jump\t// in\n    tag_34:\n      mload(0x40)\n      dup1\n      swap2\n      sub\n      swap1\n      return\n        /* \"contracts/draft.sol\":235:268  uint256 public _number = 20220330 */\n    tag_10:\n      tag_36\n      tag_37\n      jump\t// in\n    tag_36:\n      mload(0x40)\n      tag_38\n      swap2\n      swap1\n      tag_15\n      jump\t// in\n    tag_38:\n      mload(0x40)\n      dup1\n      swap2\n      sub\n      swap1\n      return\n        /* \"contracts/draft.sol\":729:814  function enumToUint() external view returns(uint){... */\n    tag_13:\n        /* \"contracts/draft.sol\":773:777  uint */\n      0x00\n        /* \"contracts/draft.sol\":800:806  action */\n      0x06\n      0x01\n      swap1\n      sload\n      swap1\n      0x0100\n      exp\n      swap1\n      div\n      0xff\n      and\n        /* \"contracts/draft.sol\":795:807  uint(action) */\n      0x02\n      dup2\n      gt\n      iszero\n      tag_40\n      jumpi\n      tag_41\n      tag_42\n      jump\t// in\n    tag_41:\n    tag_40:\n        /* \"contracts/draft.sol\":788:807  return uint(action) */\n      swap1\n      pop\n        /* \"contracts/draft.sol\":729:814  function enumToUint() external view returns(uint){... */\n      swap1\n      jump\t// out\n        /* \"contracts/draft.sol\":406:437  uint256 public _number3 = 7 % 2 */\n    tag_17:\n      sload(0x05)\n      dup2\n      jump\t// out\n        /* \"contracts/draft.sol\":189:210  uint public _uint = 1 */\n    tag_20:\n      sload(0x01)\n      dup2\n      jump\t// out\n        /* \"contracts/draft.sol\":360:390  uint256 public _number2 = 2**2 */\n    tag_23:\n      sload(0x04)\n      dup2\n      jump\t// out\n        /* \"contracts/draft.sol\":300:337  uint256 public _number1 = _number + 1 */\n    tag_26:\n      sload(0x03)\n      dup2\n      jump\t// out\n        /* \"contracts/draft.sol\":138:158  int public _int = -1 */\n    tag_29:\n      sload(0x00)\n      dup2\n      jump\t// out\n        /* \"contracts/draft.sol\":456:501  bool public _numberbool = _number2 > _number3 */\n    tag_33:\n      0x06\n      0x00\n      swap1\n      sload\n      swap1\n      0x0100\n      exp\n      swap1\n      div\n      0xff\n      and\n      dup2\n      jump\t// out\n        /* \"contracts/draft.sol\":235:268  uint256 public _number = 20220330 */\n    tag_37:\n      sload(0x02)\n      dup2\n      jump\t// out\n        /* \"#utility.yul\":7:84   */\n    tag_43:\n        /* \"#utility.yul\":44:51   */\n      0x00\n        /* \"#utility.yul\":73:78   */\n      dup2\n        /* \"#utility.yul\":62:78   */\n      swap1\n      pop\n        /* \"#utility.yul\":7:84   */\n      swap2\n      swap1\n      pop\n      jump\t// out\n        /* \"#utility.yul\":90:208   */\n    tag_44:\n        /* \"#utility.yul\":177:201   */\n      tag_52\n        /* \"#utility.yul\":195:200   */\n      dup2\n        /* \"#utility.yul\":177:201   */\n      tag_43\n      jump\t// in\n    tag_52:\n        /* \"#utility.yul\":172:175   */\n      dup3\n        /* \"#utility.yul\":165:202   */\n      mstore\n        /* \"#utility.yul\":90:208   */\n      pop\n      pop\n      jump\t// out\n        /* \"#utility.yul\":214:436   */\n    tag_15:\n        /* \"#utility.yul\":307:311   */\n      0x00\n        /* \"#utility.yul\":345:347   */\n      0x20\n        /* \"#utility.yul\":334:343   */\n      dup3\n        /* \"#utility.yul\":330:348   */\n      add\n        /* \"#utility.yul\":322:348   */\n      swap1\n      pop\n        /* \"#utility.yul\":358:429   */\n      tag_54\n        /* \"#utility.yul\":426:427   */\n      0x00\n        /* \"#utility.yul\":415:424   */\n      dup4\n        /* \"#utility.yul\":411:428   */\n      add\n        /* \"#utility.yul\":402:408   */\n      dup5\n        /* \"#utility.yul\":358:429   */\n      tag_44\n      jump\t// in\n    tag_54:\n        /* \"#utility.yul\":214:436   */\n      swap3\n      swap2\n      pop\n      pop\n      jump\t// out\n        /* \"#utility.yul\":442:518   */\n    tag_45:\n        /* \"#utility.yul\":478:485   */\n      0x00\n        /* \"#utility.yul\":507:512   */\n      dup2\n        /* \"#utility.yul\":496:512   */\n      swap1\n      pop\n        /* \"#utility.yul\":442:518   */\n      swap2\n      swap1\n      pop\n      jump\t// out\n        /* \"#utility.yul\":524:639   */\n    tag_46:\n        /* \"#utility.yul\":609:632   */\n      tag_57\n        /* \"#utility.yul\":626:631   */\n      dup2\n        /* \"#utility.yul\":609:632   */\n      tag_45\n      jump\t// in\n    tag_57:\n        /* \"#utility.yul\":604:607   */\n      dup3\n        /* \"#utility.yul\":597:633   */\n      mstore\n        /* \"#utility.yul\":524:639   */\n      pop\n      pop\n      jump\t// out\n        /* \"#utility.yul\":645:863   */\n    tag_31:\n        /* \"#utility.yul\":736:740   */\n      0x00\n        /* \"#utility.yul\":774:776   */\n      0x20\n        /* \"#utility.yul\":763:772   */\n      dup3\n        /* \"#utility.yul\":759:777   */\n      add\n        /* \"#utility.yul\":751:777   */\n      swap1\n      pop\n        /* \"#utility.yul\":787:856   */\n      tag_59\n        /* \"#utility.yul\":853:854   */\n      0x00\n        /* \"#utility.yul\":842:851   */\n      dup4\n        /* \"#utility.yul\":838:855   */\n      add\n        /* \"#utility.yul\":829:835   */\n      dup5\n        /* \"#utility.yul\":787:856   */\n      tag_46\n      jump\t// in\n    tag_59:\n        /* \"#utility.yul\":645:863   */\n      swap3\n      swap2\n      pop\n      pop\n      jump\t// out\n        /* \"#utility.yul\":869:959   */\n    tag_47:\n        /* \"#utility.yul\":903:910   */\n      0x00\n        /* \"#utility.yul\":946:951   */\n      dup2\n        /* \"#utility.yul\":939:952   */\n      iszero\n        /* \"#utility.yul\":932:953   */\n      iszero\n        /* \"#utility.yul\":921:953   */\n      swap1\n      pop\n        /* \"#utility.yul\":869:959   */\n      swap2\n      swap1\n      pop\n      jump\t// out\n        /* \"#utility.yul\":965:1074   */\n    tag_48:\n        /* \"#utility.yul\":1046:1067   */\n      tag_62\n        /* \"#utility.yul\":1061:1066   */\n      dup2\n        /* \"#utility.yul\":1046:1067   */\n      tag_47\n      jump\t// in\n    tag_62:\n        /* \"#utility.yul\":1041:1044   */\n      dup3\n        /* \"#utility.yul\":1034:1068   */\n      mstore\n        /* \"#utility.yul\":965:1074   */\n      pop\n      pop\n      jump\t// out\n        /* \"#utility.yul\":1080:1290   */\n    tag_35:\n        /* \"#utility.yul\":1167:1171   */\n      0x00\n        /* \"#utility.yul\":1205:1207   */\n      0x20\n        /* \"#utility.yul\":1194:1203   */\n      dup3\n        /* \"#utility.yul\":1190:1208   */\n      add\n        /* \"#utility.yul\":1182:1208   */\n      swap1\n      pop\n        /* \"#utility.yul\":1218:1283   */\n      tag_64\n        /* \"#utility.yul\":1280:1281   */\n      0x00\n        /* \"#utility.yul\":1269:1278   */\n      dup4\n        /* \"#utility.yul\":1265:1282   */\n      add\n        /* \"#utility.yul\":1256:1262   */\n      dup5\n        /* \"#utility.yul\":1218:1283   */\n      tag_48\n      jump\t// in\n    tag_64:\n        /* \"#utility.yul\":1080:1290   */\n      swap3\n      swap2\n      pop\n      pop\n      jump\t// out\n        /* \"#utility.yul\":1296:1476   */\n    tag_42:\n        /* \"#utility.yul\":1344:1421   */\n      0x4e487b7100000000000000000000000000000000000000000000000000000000\n        /* \"#utility.yul\":1341:1342   */\n      0x00\n        /* \"#utility.yul\":1334:1422   */\n      mstore\n        /* \"#utility.yul\":1441:1445   */\n      0x21\n        /* \"#utility.yul\":1438:1439   */\n      0x04\n        /* \"#utility.yul\":1431:1446   */\n      mstore\n        /* \"#utility.yul\":1465:1469   */\n      0x24\n        /* \"#utility.yul\":1462:1463   */\n      0x00\n        /* \"#utility.yul\":1455:1470   */\n      revert\n\n    auxdata: 0xa2646970667358221220e6437137ba6480c1a07c732e047764435317cec4bf953670303c057e66cfb01764736f6c634300081a0033\n}\n",
				"bytecode": {
					"linkReferences": {},
					"object": "60806040527fffffffffffffffffffffffffffffffffffffffffffffffffffffffffffffffff5f556001805563013489aa600255600160025461004291906100df565b6003556004805560016005556005546004541160065f6101000a81548160ff0219169083151502179055506002600660016101000a81548160ff0219169083600281111561009357610092610112565b5b02179055503480156100a3575f80fd5b5061013f565b5f819050919050565b7f4e487b71000000000000000000000000000000000000000000000000000000005f52601160045260245ffd5b5f6100e9826100a9565b91506100f4836100a9565b925082820190508082111561010c5761010b6100b2565b5b92915050565b7f4e487b71000000000000000000000000000000000000000000000000000000005f52602160045260245ffd5b6102cf8061014c5f395ff3fe608060405234801561000f575f80fd5b5060043610610086575f3560e01c80636e8d0c9e116100595780636e8d0c9e14610102578063af45869e14610120578063e37c6c821461013e578063f9bd55cc1461015c57610086565b8063010199581461008a57806319bff7df146100a85780632543135b146100c65780636b1d2c4e146100e4575b5f80fd5b61009261017a565b60405161009f91906101ef565b60405180910390f35b6100b06101a2565b6040516100bd91906101ef565b60405180910390f35b6100ce6101a8565b6040516100db91906101ef565b60405180910390f35b6100ec6101ae565b6040516100f991906101ef565b60405180910390f35b61010a6101b4565b60405161011791906101ef565b60405180910390f35b6101286101ba565b6040516101359190610220565b60405180910390f35b6101466101bf565b6040516101539190610253565b60405180910390f35b6101646101d1565b60405161017191906101ef565b60405180910390f35b5f600660019054906101000a900460ff16600281111561019d5761019c61026c565b5b905090565b60055481565b60015481565b60045481565b60035481565b5f5481565b60065f9054906101000a900460ff1681565b60025481565b5f819050919050565b6101e9816101d7565b82525050565b5f6020820190506102025f8301846101e0565b92915050565b5f819050919050565b61021a81610208565b82525050565b5f6020820190506102335f830184610211565b92915050565b5f8115159050919050565b61024d81610239565b82525050565b5f6020820190506102665f830184610244565b92915050565b7f4e487b71000000000000000000000000000000000000000000000000000000005f52602160045260245ffdfea2646970667358221220e6437137ba6480c1a07c732e047764435317cec4bf953670303c057e66cfb01764736f6c634300081a0033",
					"opcodes": "PUSH1 0x80 PUSH1 0x40 MSTORE PUSH32 0xFFFFFFFFFFFFFFFFFFFFFFFFFFFFFFFFFFFFFFFFFFFFFFFFFFFFFFFFFFFFFFFF PUSH0 SSTORE PUSH1 0x1 DUP1 SSTORE PUSH4 0x13489AA PUSH1 0x2 SSTORE PUSH1 0x1 PUSH1 0x2 SLOAD PUSH2 0x42 SWAP2 SWAP1 PUSH2 0xDF JUMP JUMPDEST PUSH1 0x3 SSTORE PUSH1 0x4 DUP1 SSTORE PUSH1 0x1 PUSH1 0x5 SSTORE PUSH1 0x5 SLOAD PUSH1 0x4 SLOAD GT PUSH1 0x6 PUSH0 PUSH2 0x100 EXP DUP2 SLOAD DUP2 PUSH1 0xFF MUL NOT AND SWAP1 DUP4 ISZERO ISZERO MUL OR SWAP1 SSTORE POP PUSH1 0x2 PUSH1 0x6 PUSH1 0x1 PUSH2 0x100 EXP DUP2 SLOAD DUP2 PUSH1 0xFF MUL NOT AND SWAP1 DUP4 PUSH1 0x2 DUP2 GT ISZERO PUSH2 0x93 JUMPI PUSH2 0x92 PUSH2 0x112 JUMP JUMPDEST JUMPDEST MUL OR SWAP1 SSTORE POP CALLVALUE DUP1 ISZERO PUSH2 0xA3 JUMPI PUSH0 DUP1 REVERT JUMPDEST POP PUSH2 0x13F JUMP JUMPDEST PUSH0 DUP2 SWAP1 POP SWAP2 SWAP1 POP JUMP JUMPDEST PUSH32 0x4E487B7100000000000000000000000000000000000000000000000000000000 PUSH0 MSTORE PUSH1 0x11 PUSH1 0x4 MSTORE PUSH1 0x24 PUSH0 REVERT JUMPDEST PUSH0 PUSH2 0xE9 DUP3 PUSH2 0xA9 JUMP JUMPDEST SWAP2 POP PUSH2 0xF4 DUP4 PUSH2 0xA9 JUMP JUMPDEST SWAP3 POP DUP3 DUP3 ADD SWAP1 POP DUP1 DUP3 GT ISZERO PUSH2 0x10C JUMPI PUSH2 0x10B PUSH2 0xB2 JUMP JUMPDEST JUMPDEST SWAP3 SWAP2 POP POP JUMP JUMPDEST PUSH32 0x4E487B7100000000000000000000000000000000000000000000000000000000 PUSH0 MSTORE PUSH1 0x21 PUSH1 0x4 MSTORE PUSH1 0x24 PUSH0 REVERT JUMPDEST PUSH2 0x2CF DUP1 PUSH2 0x14C PUSH0 CODECOPY PUSH0 RETURN INVALID PUSH1 0x80 PUSH1 0x40 MSTORE CALLVALUE DUP1 ISZERO PUSH2 0xF JUMPI PUSH0 DUP1 REVERT JUMPDEST POP PUSH1 0x4 CALLDATASIZE LT PUSH2 0x86 JUMPI PUSH0 CALLDATALOAD PUSH1 0xE0 SHR DUP1 PUSH4 0x6E8D0C9E GT PUSH2 0x59 JUMPI DUP1 PUSH4 0x6E8D0C9E EQ PUSH2 0x102 JUMPI DUP1 PUSH4 0xAF45869E EQ PUSH2 0x120 JUMPI DUP1 PUSH4 0xE37C6C82 EQ PUSH2 0x13E JUMPI DUP1 PUSH4 0xF9BD55CC EQ PUSH2 0x15C JUMPI PUSH2 0x86 JUMP JUMPDEST DUP1 PUSH4 0x1019958 EQ PUSH2 0x8A JUMPI DUP1 PUSH4 0x19BFF7DF EQ PUSH2 0xA8 JUMPI DUP1 PUSH4 0x2543135B EQ PUSH2 0xC6 JUMPI DUP1 PUSH4 0x6B1D2C4E EQ PUSH2 0xE4 JUMPI JUMPDEST PUSH0 DUP1 REVERT JUMPDEST PUSH2 0x92 PUSH2 0x17A JUMP JUMPDEST PUSH1 0x40 MLOAD PUSH2 0x9F SWAP2 SWAP1 PUSH2 0x1EF JUMP JUMPDEST PUSH1 0x40 MLOAD DUP1 SWAP2 SUB SWAP1 RETURN JUMPDEST PUSH2 0xB0 PUSH2 0x1A2 JUMP JUMPDEST PUSH1 0x40 MLOAD PUSH2 0xBD SWAP2 SWAP1 PUSH2 0x1EF JUMP JUMPDEST PUSH1 0x40 MLOAD DUP1 SWAP2 SUB SWAP1 RETURN JUMPDEST PUSH2 0xCE PUSH2 0x1A8 JUMP JUMPDEST PUSH1 0x40 MLOAD PUSH2 0xDB SWAP2 SWAP1 PUSH2 0x1EF JUMP JUMPDEST PUSH1 0x40 MLOAD DUP1 SWAP2 SUB SWAP1 RETURN JUMPDEST PUSH2 0xEC PUSH2 0x1AE JUMP JUMPDEST PUSH1 0x40 MLOAD PUSH2 0xF9 SWAP2 SWAP1 PUSH2 0x1EF JUMP JUMPDEST PUSH1 0x40 MLOAD DUP1 SWAP2 SUB SWAP1 RETURN JUMPDEST PUSH2 0x10A PUSH2 0x1B4 JUMP JUMPDEST PUSH1 0x40 MLOAD PUSH2 0x117 SWAP2 SWAP1 PUSH2 0x1EF JUMP JUMPDEST PUSH1 0x40 MLOAD DUP1 SWAP2 SUB SWAP1 RETURN JUMPDEST PUSH2 0x128 PUSH2 0x1BA JUMP JUMPDEST PUSH1 0x40 MLOAD PUSH2 0x135 SWAP2 SWAP1 PUSH2 0x220 JUMP JUMPDEST PUSH1 0x40 MLOAD DUP1 SWAP2 SUB SWAP1 RETURN JUMPDEST PUSH2 0x146 PUSH2 0x1BF JUMP JUMPDEST PUSH1 0x40 MLOAD PUSH2 0x153 SWAP2 SWAP1 PUSH2 0x253 JUMP JUMPDEST PUSH1 0x40 MLOAD DUP1 SWAP2 SUB SWAP1 RETURN JUMPDEST PUSH2 0x164 PUSH2 0x1D1 JUMP JUMPDEST PUSH1 0x40 MLOAD PUSH2 0x171 SWAP2 SWAP1 PUSH2 0x1EF JUMP JUMPDEST PUSH1 0x40 MLOAD DUP1 SWAP2 SUB SWAP1 RETURN JUMPDEST PUSH0 PUSH1 0x6 PUSH1 0x1 SWAP1 SLOAD SWAP1 PUSH2 0x100 EXP SWAP1 DIV PUSH1 0xFF AND PUSH1 0x2 DUP2 GT ISZERO PUSH2 0x19D JUMPI PUSH2 0x19C PUSH2 0x26C JUMP JUMPDEST JUMPDEST SWAP1 POP SWAP1 JUMP JUMPDEST PUSH1 0x5 SLOAD DUP2 JUMP JUMPDEST PUSH1 0x1 SLOAD DUP2 JUMP JUMPDEST PUSH1 0x4 SLOAD DUP2 JUMP JUMPDEST PUSH1 0x3 SLOAD DUP2 JUMP JUMPDEST PUSH0 SLOAD DUP2 JUMP JUMPDEST PUSH1 0x6 PUSH0 SWAP1 SLOAD SWAP1 PUSH2 0x100 EXP SWAP1 DIV PUSH1 0xFF AND DUP2 JUMP JUMPDEST PUSH1 0x2 SLOAD DUP2 JUMP JUMPDEST PUSH0 DUP2 SWAP1 POP SWAP2 SWAP1 POP JUMP JUMPDEST PUSH2 0x1E9 DUP2 PUSH2 0x1D7 JUMP JUMPDEST DUP3 MSTORE POP POP JUMP JUMPDEST PUSH0 PUSH1 0x20 DUP3 ADD SWAP1 POP PUSH2 0x202 PUSH0 DUP4 ADD DUP5 PUSH2 0x1E0 JUMP JUMPDEST SWAP3 SWAP2 POP POP JUMP JUMPDEST PUSH0 DUP2 SWAP1 POP SWAP2 SWAP1 POP JUMP JUMPDEST PUSH2 0x21A DUP2 PUSH2 0x208 JUMP JUMPDEST DUP3 MSTORE POP POP JUMP JUMPDEST PUSH0 PUSH1 0x20 DUP3 ADD SWAP1 POP PUSH2 0x233 PUSH0 DUP4 ADD DUP5 PUSH2 0x211 JUMP JUMPDEST SWAP3 SWAP2 POP POP JUMP JUMPDEST PUSH0 DUP2 ISZERO ISZERO SWAP1 POP SWAP2 SWAP1 POP JUMP JUMPDEST PUSH2 0x24D DUP2 PUSH2 0x239 JUMP JUMPDEST DUP3 MSTORE POP POP JUMP JUMPDEST PUSH0 PUSH1 0x20 DUP3 ADD SWAP1 POP PUSH2 0x266 PUSH0 DUP4 ADD DUP5 PUSH2 0x244 JUMP JUMPDEST SWAP3 SWAP2 POP POP JUMP JUMPDEST PUSH32 0x4E487B7100000000000000000000000000000000000000000000000000000000 PUSH0 MSTORE PUSH1 0x21 PUSH1 0x4 MSTORE PUSH1 0x24 PUSH0 REVERT INVALID LOG2 PUSH5 0x6970667358 0x22 SLT KECCAK256 0xE6 NUMBER PUSH18 0x37BA6480C1A07C732E047764435317CEC4BF SWAP6 CALLDATASIZE PUSH17 0x303C057E66CFB01764736F6C634300081A STOP CALLER "
				},
				"gasEstimates": {
					"creation": {
						"codeDepositCost": "143800",
						"executionCost": "infinite",
						"totalCost": "infinite"
					},
					"external": {
						"_int()": "2446",
						"_number()": "2491",
						"_number1()": "2425",
						"_number2()": "2492",
						"_number3()": "2448",
						"_numberbool()": "2510",
						"_uint()": "2470",
						"enumToUint()": "2545"
					}
				},
				"methodIdentifiers": {
					"_int()": "af45869e",
					"_number()": "f9bd55cc",
					"_number1()": "6e8d0c9e",
					"_number2()": "6b1d2c4e",
					"_number3()": "19bff7df",
					"_numberbool()": "e37c6c82",
					"_uint()": "2543135b",
					"enumToUint()": "01019958"
				}
			},
			"storageLayout": {
				"storage": [
					{
						"astId": 6,
						"contract": "contracts/draft.sol:MyDraft",
						"label": "_int",
						"offset": 0,
						"slot": "0",
						"type": "t_int256"
					},
					{
						"astId": 9,
						"contract": "contracts/draft.sol:MyDraft",
						"label": "_uint",
						"offset": 0,
						"slot": "1",
						"type": "t_uint256"
					},
					{
						"astId": 12,
						"contract": "contracts/draft.sol:MyDraft",
						"label": "_number",
						"offset": 0,
						"slot": "2",
						"type": "t_uint256"
					},
					{
						"astId": 17,
						"contract": "contracts/draft.sol:MyDraft",
						"label": "_number1",
						"offset": 0,
						"slot": "3",
						"type": "t_uint256"
					},
					{
						"astId": 22,
						"contract": "contracts/draft.sol:MyDraft",
						"label": "_number2",
						"offset": 0,
						"slot": "4",
						"type": "t_uint256"
					},
					{
						"astId": 27,
						"contract": "contracts/draft.sol:MyDraft",
						"label": "_number3",
						"offset": 0,
						"slot": "5",
						"type": "t_uint256"
					},
					{
						"astId": 32,
						"contract": "contracts/draft.sol:MyDraft",
						"label": "_numberbool",
						"offset": 0,
						"slot": "6",
						"type": "t_bool"
					},
					{
						"astId": 41,
						"contract": "contracts/draft.sol:MyDraft",
						"label": "action",
						"offset": 1,
						"slot": "6",
						"type": "t_enum(ActionSet)36"
					}
				],
				"types": {
					"t_bool": {
						"encoding": "inplace",
						"label": "bool",
						"numberOfBytes": "1"
					},
					"t_enum(ActionSet)36": {
						"encoding": "inplace",
						"label": "enum MyDraft.ActionSet",
						"numberOfBytes": "1"
					},
					"t_int256": {
						"encoding": "inplace",
						"label": "int256",
						"numberOfBytes": "32"
					},
					"t_uint256": {
						"encoding": "inplace",
						"label": "uint256",
						"numberOfBytes": "32"
					}
				}
			},
			"userdoc": {
				"kind": "user",
				"methods": {},
				"version": 1
			}
		}
	}
}