{
	"data": {
		"bytecode": {
			"linkReferences": {},
			"object": "6080604052600367ffffffffffffffff81111561001f5761001e6100b6565b5b6040519080825280601f01601f1916602001820160405280156100515781602001600182028036833780820191505090505b505f908161005f91906102f0565b506040518060400160405280600381526020017f0102030000000000000000000000000000000000000000000000000000000000815250600190816100a491906103c9565b503480156100b0575f80fd5b50610498565b7f4e487b71000000000000000000000000000000000000000000000000000000005f52604160045260245ffd5b5f81519050919050565b7f4e487b71000000000000000000000000000000000000000000000000000000005f52602260045260245ffd5b5f600282049050600182168061013157607f821691505b602082108103610144576101436100ed565b5b50919050565b5f819050815f5260205f209050919050565b5f6020601f8301049050919050565b5f82821b905092915050565b5f600883026101a67fffffffffffffffffffffffffffffffffffffffffffffffffffffffffffffffff8261016b565b6101b0868361016b565b95508019841693508086168417925050509392505050565b5f819050919050565b5f819050919050565b5f6101f46101ef6101ea846101c8565b6101d1565b6101c8565b9050919050565b5f819050919050565b61020d836101da565b610221610219826101fb565b848454610177565b825550505050565b5f90565b610235610229565b610240818484610204565b505050565b5b81811015610263576102585f8261022d565b600181019050610246565b5050565b601f8211156102a8576102798161014a565b6102828461015c565b81016020851015610291578190505b6102a561029d8561015c565b830182610245565b50505b505050565b5f82821c905092915050565b5f6102c85f19846008026102ad565b1980831691505092915050565b5f6102e083836102b9565b9150826002028217905092915050565b6102f9826100e3565b67ffffffffffffffff811115610312576103116100b6565b5b61031c825461011a565b610327828285610267565b5f60209050601f831160018114610358575f8415610346578287015190505b61035085826102d5565b8655506103b7565b601f1984166103668661014a565b5f5b8281101561038d57848901518255600182019150602085019450602081019050610368565b868310156103aa57848901516103a6601f8916826102b9565b8355505b6001600288020188555050505b505050505050565b5f81519050919050565b6103d2826103bf565b67ffffffffffffffff8111156103eb576103ea6100b6565b5b6103f5825461011a565b610400828285610267565b5f60209050601f831160018114610431575f841561041f578287015190505b61042985826102d5565b865550610490565b601f19841661043f8661014a565b5f5b8281101561046657848901518255600182019150602085019450602081019050610441565b86831015610483578489015161047f601f8916826102b9565b8355505b6001600288020188555050505b505050505050565b6107b0806104a55f395ff3fe608060405234801561000f575f80fd5b5060043610610055575f3560e01c80630e031ab11461005957806325cc66f514610089578063771d1327146100a7578063c0406226146100b1578063ca394aba146100d1575b5f80fd5b610073600480360381019061006e9190610443565b6100ef565b604051610080919061047d565b60405180910390f35b61009161010f565b60405161009e919061054d565b60405180910390f35b6100af610165565b005b6100b9610182565b6040516100c8939291906106ad565b60405180910390f35b6100d96103de565b6040516100e6919061047d565b60405180910390f35b600281815481106100fe575f80fd5b905f5260205f20015f915090505481565b6060600280548060200260200160405190810160405280929190818152602001828054801561015b57602002820191905f5260205f20905b815481526020019060010190808311610147575b5050505050905090565b600260018160018154018082558091505003905f5260205f205050565b61018a6103ea565b606080600160f81b835f600381106101a5576101a46106f0565b5b60200201907effffffffffffffffffffffffffffffffffffffffffffffffffffffffffffff191690817effffffffffffffffffffffffffffffffffffffffffffffffffffffffffffff191681525050600260f81b8360016003811061020d5761020c6106f0565b5b60200201907effffffffffffffffffffffffffffffffffffffffffffffffffffffffffffff191690817effffffffffffffffffffffffffffffffffffffffffffffffffffffffffffff191681525050600360f81b83600260038110610275576102746106f0565b5b60200201907effffffffffffffffffffffffffffffffffffffffffffffffffffffffffffff191690817effffffffffffffffffffffffffffffffffffffffffffffffffffffffffffff1916815250505f80546102d09061074a565b80601f01602080910402602001604051908101604052809291908181526020018280546102fc9061074a565b80156103475780601f1061031e57610100808354040283529160200191610347565b820191905f5260205f20905b81548152906001019060200180831161032a57829003601f168201915b505050505091506001805461035b9061074a565b80601f01602080910402602001604051908101604052809291908181526020018280546103879061074a565b80156103d25780601f106103a9576101008083540402835291602001916103d2565b820191905f5260205f20905b8154815290600101906020018083116103b557829003601f168201915b50505050509050909192565b5f600280549050905090565b6040518060600160405280600390602082028036833780820191505090505090565b5f80fd5b5f819050919050565b61042281610410565b811461042c575f80fd5b50565b5f8135905061043d81610419565b92915050565b5f602082840312156104585761045761040c565b5b5f6104658482850161042f565b91505092915050565b61047781610410565b82525050565b5f6020820190506104905f83018461046e565b92915050565b5f81519050919050565b5f82825260208201905092915050565b5f819050602082019050919050565b6104c881610410565b82525050565b5f6104d983836104bf565b60208301905092915050565b5f602082019050919050565b5f6104fb82610496565b61050581856104a0565b9350610510836104b0565b805f5b8381101561054057815161052788826104ce565b9750610532836104e5565b925050600181019050610513565b5085935050505092915050565b5f6020820190508181035f83015261056581846104f1565b905092915050565b5f60039050919050565b5f81905092915050565b5f819050919050565b5f7fff0000000000000000000000000000000000000000000000000000000000000082169050919050565b6105be8161058a565b82525050565b5f6105cf83836105b5565b60208301905092915050565b5f602082019050919050565b6105f08161056d565b6105fa8184610577565b925061060582610581565b805f5b8381101561063557815161061c87826105c4565b9650610627836105db565b925050600181019050610608565b505050505050565b5f81519050919050565b5f82825260208201905092915050565b8281835e5f83830152505050565b5f601f19601f8301169050919050565b5f61067f8261063d565b6106898185610647565b9350610699818560208601610657565b6106a281610665565b840191505092915050565b5f60a0820190506106c05f8301866105e7565b81810360608301526106d28185610675565b905081810360808301526106e68184610675565b9050949350505050565b7f4e487b71000000000000000000000000000000000000000000000000000000005f52603260045260245ffd5b7f4e487b71000000000000000000000000000000000000000000000000000000005f52602260045260245ffd5b5f600282049050600182168061076157607f821691505b6020821081036107745761077361071d565b5b5091905056fea26469706673582212207ee6240a1fe1e7b8ed26c4f5717098fa5fd009c24d5e72be2b61e9a9dd4b14b864736f6c634300081a0033",
			"opcodes": "PUSH1 0x80 PUSH1 0x40 MSTORE PUSH1 0x3 PUSH8 0xFFFFFFFFFFFFFFFF DUP2 GT ISZERO PUSH2 0x1F JUMPI PUSH2 0x1E PUSH2 0xB6 JUMP JUMPDEST JUMPDEST PUSH1 0x40 MLOAD SWAP1 DUP1 DUP3 MSTORE DUP1 PUSH1 0x1F ADD PUSH1 0x1F NOT AND PUSH1 0x20 ADD DUP3 ADD PUSH1 0x40 MSTORE DUP1 ISZERO PUSH2 0x51 JUMPI DUP2 PUSH1 0x20 ADD PUSH1 0x1 DUP3 MUL DUP1 CALLDATASIZE DUP4 CALLDATACOPY DUP1 DUP3 ADD SWAP2 POP POP SWAP1 POP JUMPDEST POP PUSH0 SWAP1 DUP2 PUSH2 0x5F SWAP2 SWAP1 PUSH2 0x2F0 JUMP JUMPDEST POP PUSH1 0x40 MLOAD DUP1 PUSH1 0x40 ADD PUSH1 0x40 MSTORE DUP1 PUSH1 0x3 DUP2 MSTORE PUSH1 0x20 ADD PUSH32 0x102030000000000000000000000000000000000000000000000000000000000 DUP2 MSTORE POP PUSH1 0x1 SWAP1 DUP2 PUSH2 0xA4 SWAP2 SWAP1 PUSH2 0x3C9 JUMP JUMPDEST POP CALLVALUE DUP1 ISZERO PUSH2 0xB0 JUMPI PUSH0 DUP1 REVERT JUMPDEST POP PUSH2 0x498 JUMP JUMPDEST PUSH32 0x4E487B7100000000000000000000000000000000000000000000000000000000 PUSH0 MSTORE PUSH1 0x41 PUSH1 0x4 MSTORE PUSH1 0x24 PUSH0 REVERT JUMPDEST PUSH0 DUP2 MLOAD SWAP1 POP SWAP2 SWAP1 POP JUMP JUMPDEST PUSH32 0x4E487B7100000000000000000000000000000000000000000000000000000000 PUSH0 MSTORE PUSH1 0x22 PUSH1 0x4 MSTORE PUSH1 0x24 PUSH0 REVERT JUMPDEST PUSH0 PUSH1 0x2 DUP3 DIV SWAP1 POP PUSH1 0x1 DUP3 AND DUP1 PUSH2 0x131 JUMPI PUSH1 0x7F DUP3 AND SWAP2 POP JUMPDEST PUSH1 0x20 DUP3 LT DUP2 SUB PUSH2 0x144 JUMPI PUSH2 0x143 PUSH2 0xED JUMP JUMPDEST JUMPDEST POP SWAP2 SWAP1 POP JUMP JUMPDEST PUSH0 DUP2 SWAP1 POP DUP2 PUSH0 MSTORE PUSH1 0x20 PUSH0 KECCAK256 SWAP1 POP SWAP2 SWAP1 POP JUMP JUMPDEST PUSH0 PUSH1 0x20 PUSH1 0x1F DUP4 ADD DIV SWAP1 POP SWAP2 SWAP1 POP JUMP JUMPDEST PUSH0 DUP3 DUP3 SHL SWAP1 POP SWAP3 SWAP2 POP POP JUMP JUMPDEST PUSH0 PUSH1 0x8 DUP4 MUL PUSH2 0x1A6 PUSH32 0xFFFFFFFFFFFFFFFFFFFFFFFFFFFFFFFFFFFFFFFFFFFFFFFFFFFFFFFFFFFFFFFF DUP3 PUSH2 0x16B JUMP JUMPDEST PUSH2 0x1B0 DUP7 DUP4 PUSH2 0x16B JUMP JUMPDEST SWAP6 POP DUP1 NOT DUP5 AND SWAP4 POP DUP1 DUP7 AND DUP5 OR SWAP3 POP POP POP SWAP4 SWAP3 POP POP POP JUMP JUMPDEST PUSH0 DUP2 SWAP1 POP SWAP2 SWAP1 POP JUMP JUMPDEST PUSH0 DUP2 SWAP1 POP SWAP2 SWAP1 POP JUMP JUMPDEST PUSH0 PUSH2 0x1F4 PUSH2 0x1EF PUSH2 0x1EA DUP5 PUSH2 0x1C8 JUMP JUMPDEST PUSH2 0x1D1 JUMP JUMPDEST PUSH2 0x1C8 JUMP JUMPDEST SWAP1 POP SWAP2 SWAP1 POP JUMP JUMPDEST PUSH0 DUP2 SWAP1 POP SWAP2 SWAP1 POP JUMP JUMPDEST PUSH2 0x20D DUP4 PUSH2 0x1DA JUMP JUMPDEST PUSH2 0x221 PUSH2 0x219 DUP3 PUSH2 0x1FB JUMP JUMPDEST DUP5 DUP5 SLOAD PUSH2 0x177 JUMP JUMPDEST DUP3 SSTORE POP POP POP POP JUMP JUMPDEST PUSH0 SWAP1 JUMP JUMPDEST PUSH2 0x235 PUSH2 0x229 JUMP JUMPDEST PUSH2 0x240 DUP2 DUP5 DUP5 PUSH2 0x204 JUMP JUMPDEST POP POP POP JUMP JUMPDEST JUMPDEST DUP2 DUP2 LT ISZERO PUSH2 0x263 JUMPI PUSH2 0x258 PUSH0 DUP3 PUSH2 0x22D JUMP JUMPDEST PUSH1 0x1 DUP2 ADD SWAP1 POP PUSH2 0x246 JUMP JUMPDEST POP POP JUMP JUMPDEST PUSH1 0x1F DUP3 GT ISZERO PUSH2 0x2A8 JUMPI PUSH2 0x279 DUP2 PUSH2 0x14A JUMP JUMPDEST PUSH2 0x282 DUP5 PUSH2 0x15C JUMP JUMPDEST DUP2 ADD PUSH1 0x20 DUP6 LT ISZERO PUSH2 0x291 JUMPI DUP2 SWAP1 POP JUMPDEST PUSH2 0x2A5 PUSH2 0x29D DUP6 PUSH2 0x15C JUMP JUMPDEST DUP4 ADD DUP3 PUSH2 0x245 JUMP JUMPDEST POP POP JUMPDEST POP POP POP JUMP JUMPDEST PUSH0 DUP3 DUP3 SHR SWAP1 POP SWAP3 SWAP2 POP POP JUMP JUMPDEST PUSH0 PUSH2 0x2C8 PUSH0 NOT DUP5 PUSH1 0x8 MUL PUSH2 0x2AD JUMP JUMPDEST NOT DUP1 DUP4 AND SWAP2 POP POP SWAP3 SWAP2 POP POP JUMP JUMPDEST PUSH0 PUSH2 0x2E0 DUP4 DUP4 PUSH2 0x2B9 JUMP JUMPDEST SWAP2 POP DUP3 PUSH1 0x2 MUL DUP3 OR SWAP1 POP SWAP3 SWAP2 POP POP JUMP JUMPDEST PUSH2 0x2F9 DUP3 PUSH2 0xE3 JUMP JUMPDEST PUSH8 0xFFFFFFFFFFFFFFFF DUP2 GT ISZERO PUSH2 0x312 JUMPI PUSH2 0x311 PUSH2 0xB6 JUMP JUMPDEST JUMPDEST PUSH2 0x31C DUP3 SLOAD PUSH2 0x11A JUMP JUMPDEST PUSH2 0x327 DUP3 DUP3 DUP6 PUSH2 0x267 JUMP JUMPDEST PUSH0 PUSH1 0x20 SWAP1 POP PUSH1 0x1F DUP4 GT PUSH1 0x1 DUP2 EQ PUSH2 0x358 JUMPI PUSH0 DUP5 ISZERO PUSH2 0x346 JUMPI DUP3 DUP8 ADD MLOAD SWAP1 POP JUMPDEST PUSH2 0x350 DUP6 DUP3 PUSH2 0x2D5 JUMP JUMPDEST DUP7 SSTORE POP PUSH2 0x3B7 JUMP JUMPDEST PUSH1 0x1F NOT DUP5 AND PUSH2 0x366 DUP7 PUSH2 0x14A JUMP JUMPDEST PUSH0 JUMPDEST DUP3 DUP2 LT ISZERO PUSH2 0x38D JUMPI DUP5 DUP10 ADD MLOAD DUP3 SSTORE PUSH1 0x1 DUP3 ADD SWAP2 POP PUSH1 0x20 DUP6 ADD SWAP5 POP PUSH1 0x20 DUP2 ADD SWAP1 POP PUSH2 0x368 JUMP JUMPDEST DUP7 DUP4 LT ISZERO PUSH2 0x3AA JUMPI DUP5 DUP10 ADD MLOAD PUSH2 0x3A6 PUSH1 0x1F DUP10 AND DUP3 PUSH2 0x2B9 JUMP JUMPDEST DUP4 SSTORE POP JUMPDEST PUSH1 0x1 PUSH1 0x2 DUP9 MUL ADD DUP9 SSTORE POP POP POP JUMPDEST POP POP POP POP POP POP JUMP JUMPDEST PUSH0 DUP2 MLOAD SWAP1 POP SWAP2 SWAP1 POP JUMP JUMPDEST PUSH2 0x3D2 DUP3 PUSH2 0x3BF JUMP JUMPDEST PUSH8 0xFFFFFFFFFFFFFFFF DUP2 GT ISZERO PUSH2 0x3EB JUMPI PUSH2 0x3EA PUSH2 0xB6 JUMP JUMPDEST JUMPDEST PUSH2 0x3F5 DUP3 SLOAD PUSH2 0x11A JUMP JUMPDEST PUSH2 0x400 DUP3 DUP3 DUP6 PUSH2 0x267 JUMP JUMPDEST PUSH0 PUSH1 0x20 SWAP1 POP PUSH1 0x1F DUP4 GT PUSH1 0x1 DUP2 EQ PUSH2 0x431 JUMPI PUSH0 DUP5 ISZERO PUSH2 0x41F JUMPI DUP3 DUP8 ADD MLOAD SWAP1 POP JUMPDEST PUSH2 0x429 DUP6 DUP3 PUSH2 0x2D5 JUMP JUMPDEST DUP7 SSTORE POP PUSH2 0x490 JUMP JUMPDEST PUSH1 0x1F NOT DUP5 AND PUSH2 0x43F DUP7 PUSH2 0x14A JUMP JUMPDEST PUSH0 JUMPDEST DUP3 DUP2 LT ISZERO PUSH2 0x466 JUMPI DUP5 DUP10 ADD MLOAD DUP3 SSTORE PUSH1 0x1 DUP3 ADD SWAP2 POP PUSH1 0x20 DUP6 ADD SWAP5 POP PUSH1 0x20 DUP2 ADD SWAP1 POP PUSH2 0x441 JUMP JUMPDEST DUP7 DUP4 LT ISZERO PUSH2 0x483 JUMPI DUP5 DUP10 ADD MLOAD PUSH2 0x47F PUSH1 0x1F DUP10 AND DUP3 PUSH2 0x2B9 JUMP JUMPDEST DUP4 SSTORE POP JUMPDEST PUSH1 0x1 PUSH1 0x2 DUP9 MUL ADD DUP9 SSTORE POP POP POP JUMPDEST POP POP POP POP POP POP JUMP JUMPDEST PUSH2 0x7B0 DUP1 PUSH2 0x4A5 PUSH0 CODECOPY PUSH0 RETURN INVALID PUSH1 0x80 PUSH1 0x40 MSTORE CALLVALUE DUP1 ISZERO PUSH2 0xF JUMPI PUSH0 DUP1 REVERT JUMPDEST POP PUSH1 0x4 CALLDATASIZE LT PUSH2 0x55 JUMPI PUSH0 CALLDATALOAD PUSH1 0xE0 SHR DUP1 PUSH4 0xE031AB1 EQ PUSH2 0x59 JUMPI DUP1 PUSH4 0x25CC66F5 EQ PUSH2 0x89 JUMPI DUP1 PUSH4 0x771D1327 EQ PUSH2 0xA7 JUMPI DUP1 PUSH4 0xC0406226 EQ PUSH2 0xB1 JUMPI DUP1 PUSH4 0xCA394ABA EQ PUSH2 0xD1 JUMPI JUMPDEST PUSH0 DUP1 REVERT JUMPDEST PUSH2 0x73 PUSH1 0x4 DUP1 CALLDATASIZE SUB DUP2 ADD SWAP1 PUSH2 0x6E SWAP2 SWAP1 PUSH2 0x443 JUMP JUMPDEST PUSH2 0xEF JUMP JUMPDEST PUSH1 0x40 MLOAD PUSH2 0x80 SWAP2 SWAP1 PUSH2 0x47D JUMP JUMPDEST PUSH1 0x40 MLOAD DUP1 SWAP2 SUB SWAP1 RETURN JUMPDEST PUSH2 0x91 PUSH2 0x10F JUMP JUMPDEST PUSH1 0x40 MLOAD PUSH2 0x9E SWAP2 SWAP1 PUSH2 0x54D JUMP JUMPDEST PUSH1 0x40 MLOAD DUP1 SWAP2 SUB SWAP1 RETURN JUMPDEST PUSH2 0xAF PUSH2 0x165 JUMP JUMPDEST STOP JUMPDEST PUSH2 0xB9 PUSH2 0x182 JUMP JUMPDEST PUSH1 0x40 MLOAD PUSH2 0xC8 SWAP4 SWAP3 SWAP2 SWAP1 PUSH2 0x6AD JUMP JUMPDEST PUSH1 0x40 MLOAD DUP1 SWAP2 SUB SWAP1 RETURN JUMPDEST PUSH2 0xD9 PUSH2 0x3DE JUMP JUMPDEST PUSH1 0x40 MLOAD PUSH2 0xE6 SWAP2 SWAP1 PUSH2 0x47D JUMP JUMPDEST PUSH1 0x40 MLOAD DUP1 SWAP2 SUB SWAP1 RETURN JUMPDEST PUSH1 0x2 DUP2 DUP2 SLOAD DUP2 LT PUSH2 0xFE JUMPI PUSH0 DUP1 REVERT JUMPDEST SWAP1 PUSH0 MSTORE PUSH1 0x20 PUSH0 KECCAK256 ADD PUSH0 SWAP2 POP SWAP1 POP SLOAD DUP2 JUMP JUMPDEST PUSH1 0x60 PUSH1 0x2 DUP1 SLOAD DUP1 PUSH1 0x20 MUL PUSH1 0x20 ADD PUSH1 0x40 MLOAD SWAP1 DUP2 ADD PUSH1 0x40 MSTORE DUP1 SWAP3 SWAP2 SWAP1 DUP2 DUP2 MSTORE PUSH1 0x20 ADD DUP3 DUP1 SLOAD DUP1 ISZERO PUSH2 0x15B JUMPI PUSH1 0x20 MUL DUP3 ADD SWAP2 SWAP1 PUSH0 MSTORE PUSH1 0x20 PUSH0 KECCAK256 SWAP1 JUMPDEST DUP2 SLOAD DUP2 MSTORE PUSH1 0x20 ADD SWAP1 PUSH1 0x1 ADD SWAP1 DUP1 DUP4 GT PUSH2 0x147 JUMPI JUMPDEST POP POP POP POP POP SWAP1 POP SWAP1 JUMP JUMPDEST PUSH1 0x2 PUSH1 0x1 DUP2 PUSH1 0x1 DUP2 SLOAD ADD DUP1 DUP3 SSTORE DUP1 SWAP2 POP POP SUB SWAP1 PUSH0 MSTORE PUSH1 0x20 PUSH0 KECCAK256 POP POP JUMP JUMPDEST PUSH2 0x18A PUSH2 0x3EA JUMP JUMPDEST PUSH1 0x60 DUP1 PUSH1 0x1 PUSH1 0xF8 SHL DUP4 PUSH0 PUSH1 0x3 DUP2 LT PUSH2 0x1A5 JUMPI PUSH2 0x1A4 PUSH2 0x6F0 JUMP JUMPDEST JUMPDEST PUSH1 0x20 MUL ADD SWAP1 PUSH31 0xFFFFFFFFFFFFFFFFFFFFFFFFFFFFFFFFFFFFFFFFFFFFFFFFFFFFFFFFFFFFFF NOT AND SWAP1 DUP2 PUSH31 0xFFFFFFFFFFFFFFFFFFFFFFFFFFFFFFFFFFFFFFFFFFFFFFFFFFFFFFFFFFFFFF NOT AND DUP2 MSTORE POP POP PUSH1 0x2 PUSH1 0xF8 SHL DUP4 PUSH1 0x1 PUSH1 0x3 DUP2 LT PUSH2 0x20D JUMPI PUSH2 0x20C PUSH2 0x6F0 JUMP JUMPDEST JUMPDEST PUSH1 0x20 MUL ADD SWAP1 PUSH31 0xFFFFFFFFFFFFFFFFFFFFFFFFFFFFFFFFFFFFFFFFFFFFFFFFFFFFFFFFFFFFFF NOT AND SWAP1 DUP2 PUSH31 0xFFFFFFFFFFFFFFFFFFFFFFFFFFFFFFFFFFFFFFFFFFFFFFFFFFFFFFFFFFFFFF NOT AND DUP2 MSTORE POP POP PUSH1 0x3 PUSH1 0xF8 SHL DUP4 PUSH1 0x2 PUSH1 0x3 DUP2 LT PUSH2 0x275 JUMPI PUSH2 0x274 PUSH2 0x6F0 JUMP JUMPDEST JUMPDEST PUSH1 0x20 MUL ADD SWAP1 PUSH31 0xFFFFFFFFFFFFFFFFFFFFFFFFFFFFFFFFFFFFFFFFFFFFFFFFFFFFFFFFFFFFFF NOT AND SWAP1 DUP2 PUSH31 0xFFFFFFFFFFFFFFFFFFFFFFFFFFFFFFFFFFFFFFFFFFFFFFFFFFFFFFFFFFFFFF NOT AND DUP2 MSTORE POP POP PUSH0 DUP1 SLOAD PUSH2 0x2D0 SWAP1 PUSH2 0x74A JUMP JUMPDEST DUP1 PUSH1 0x1F ADD PUSH1 0x20 DUP1 SWAP2 DIV MUL PUSH1 0x20 ADD PUSH1 0x40 MLOAD SWAP1 DUP2 ADD PUSH1 0x40 MSTORE DUP1 SWAP3 SWAP2 SWAP1 DUP2 DUP2 MSTORE PUSH1 0x20 ADD DUP3 DUP1 SLOAD PUSH2 0x2FC SWAP1 PUSH2 0x74A JUMP JUMPDEST DUP1 ISZERO PUSH2 0x347 JUMPI DUP1 PUSH1 0x1F LT PUSH2 0x31E JUMPI PUSH2 0x100 DUP1 DUP4 SLOAD DIV MUL DUP4 MSTORE SWAP2 PUSH1 0x20 ADD SWAP2 PUSH2 0x347 JUMP JUMPDEST DUP3 ADD SWAP2 SWAP1 PUSH0 MSTORE PUSH1 0x20 PUSH0 KECCAK256 SWAP1 JUMPDEST DUP2 SLOAD DUP2 MSTORE SWAP1 PUSH1 0x1 ADD SWAP1 PUSH1 0x20 ADD DUP1 DUP4 GT PUSH2 0x32A JUMPI DUP3 SWAP1 SUB PUSH1 0x1F AND DUP3 ADD SWAP2 JUMPDEST POP POP POP POP POP SWAP2 POP PUSH1 0x1 DUP1 SLOAD PUSH2 0x35B SWAP1 PUSH2 0x74A JUMP JUMPDEST DUP1 PUSH1 0x1F ADD PUSH1 0x20 DUP1 SWAP2 DIV MUL PUSH1 0x20 ADD PUSH1 0x40 MLOAD SWAP1 DUP2 ADD PUSH1 0x40 MSTORE DUP1 SWAP3 SWAP2 SWAP1 DUP2 DUP2 MSTORE PUSH1 0x20 ADD DUP3 DUP1 SLOAD PUSH2 0x387 SWAP1 PUSH2 0x74A JUMP JUMPDEST DUP1 ISZERO PUSH2 0x3D2 JUMPI DUP1 PUSH1 0x1F LT PUSH2 0x3A9 JUMPI PUSH2 0x100 DUP1 DUP4 SLOAD DIV MUL DUP4 MSTORE SWAP2 PUSH1 0x20 ADD SWAP2 PUSH2 0x3D2 JUMP JUMPDEST DUP3 ADD SWAP2 SWAP1 PUSH0 MSTORE PUSH1 0x20 PUSH0 KECCAK256 SWAP1 JUMPDEST DUP2 SLOAD DUP2 MSTORE SWAP1 PUSH1 0x1 ADD SWAP1 PUSH1 0x20 ADD DUP1 DUP4 GT PUSH2 0x3B5 JUMPI DUP3 SWAP1 SUB PUSH1 0x1F AND DUP3 ADD SWAP2 JUMPDEST POP POP POP POP POP SWAP1 POP SWAP1 SWAP2 SWAP3 JUMP JUMPDEST PUSH0 PUSH1 0x2 DUP1 SLOAD SWAP1 POP SWAP1 POP SWAP1 JUMP JUMPDEST PUSH1 0x40 MLOAD DUP1 PUSH1 0x60 ADD PUSH1 0x40 MSTORE DUP1 PUSH1 0x3 SWAP1 PUSH1 0x20 DUP3 MUL DUP1 CALLDATASIZE DUP4 CALLDATACOPY DUP1 DUP3 ADD SWAP2 POP POP SWAP1 POP POP SWAP1 JUMP JUMPDEST PUSH0 DUP1 REVERT JUMPDEST PUSH0 DUP2 SWAP1 POP SWAP2 SWAP1 POP JUMP JUMPDEST PUSH2 0x422 DUP2 PUSH2 0x410 JUMP JUMPDEST DUP2 EQ PUSH2 0x42C JUMPI PUSH0 DUP1 REVERT JUMPDEST POP JUMP JUMPDEST PUSH0 DUP2 CALLDATALOAD SWAP1 POP PUSH2 0x43D DUP2 PUSH2 0x419 JUMP JUMPDEST SWAP3 SWAP2 POP POP JUMP JUMPDEST PUSH0 PUSH1 0x20 DUP3 DUP5 SUB SLT ISZERO PUSH2 0x458 JUMPI PUSH2 0x457 PUSH2 0x40C JUMP JUMPDEST JUMPDEST PUSH0 PUSH2 0x465 DUP5 DUP3 DUP6 ADD PUSH2 0x42F JUMP JUMPDEST SWAP2 POP POP SWAP3 SWAP2 POP POP JUMP JUMPDEST PUSH2 0x477 DUP2 PUSH2 0x410 JUMP JUMPDEST DUP3 MSTORE POP POP JUMP JUMPDEST PUSH0 PUSH1 0x20 DUP3 ADD SWAP1 POP PUSH2 0x490 PUSH0 DUP4 ADD DUP5 PUSH2 0x46E JUMP JUMPDEST SWAP3 SWAP2 POP POP JUMP JUMPDEST PUSH0 DUP2 MLOAD SWAP1 POP SWAP2 SWAP1 POP JUMP JUMPDEST PUSH0 DUP3 DUP3 MSTORE PUSH1 0x20 DUP3 ADD SWAP1 POP SWAP3 SWAP2 POP POP JUMP JUMPDEST PUSH0 DUP2 SWAP1 POP PUSH1 0x20 DUP3 ADD SWAP1 POP SWAP2 SWAP1 POP JUMP JUMPDEST PUSH2 0x4C8 DUP2 PUSH2 0x410 JUMP JUMPDEST DUP3 MSTORE POP POP JUMP JUMPDEST PUSH0 PUSH2 0x4D9 DUP4 DUP4 PUSH2 0x4BF JUMP JUMPDEST PUSH1 0x20 DUP4 ADD SWAP1 POP SWAP3 SWAP2 POP POP JUMP JUMPDEST PUSH0 PUSH1 0x20 DUP3 ADD SWAP1 POP SWAP2 SWAP1 POP JUMP JUMPDEST PUSH0 PUSH2 0x4FB DUP3 PUSH2 0x496 JUMP JUMPDEST PUSH2 0x505 DUP2 DUP6 PUSH2 0x4A0 JUMP JUMPDEST SWAP4 POP PUSH2 0x510 DUP4 PUSH2 0x4B0 JUMP JUMPDEST DUP1 PUSH0 JUMPDEST DUP4 DUP2 LT ISZERO PUSH2 0x540 JUMPI DUP2 MLOAD PUSH2 0x527 DUP9 DUP3 PUSH2 0x4CE JUMP JUMPDEST SWAP8 POP PUSH2 0x532 DUP4 PUSH2 0x4E5 JUMP JUMPDEST SWAP3 POP POP PUSH1 0x1 DUP2 ADD SWAP1 POP PUSH2 0x513 JUMP JUMPDEST POP DUP6 SWAP4 POP POP POP POP SWAP3 SWAP2 POP POP JUMP JUMPDEST PUSH0 PUSH1 0x20 DUP3 ADD SWAP1 POP DUP2 DUP2 SUB PUSH0 DUP4 ADD MSTORE PUSH2 0x565 DUP2 DUP5 PUSH2 0x4F1 JUMP JUMPDEST SWAP1 POP SWAP3 SWAP2 POP POP JUMP JUMPDEST PUSH0 PUSH1 0x3 SWAP1 POP SWAP2 SWAP1 POP JUMP JUMPDEST PUSH0 DUP2 SWAP1 POP SWAP3 SWAP2 POP POP JUMP JUMPDEST PUSH0 DUP2 SWAP1 POP SWAP2 SWAP1 POP JUMP JUMPDEST PUSH0 PUSH32 0xFF00000000000000000000000000000000000000000000000000000000000000 DUP3 AND SWAP1 POP SWAP2 SWAP1 POP JUMP JUMPDEST PUSH2 0x5BE DUP2 PUSH2 0x58A JUMP JUMPDEST DUP3 MSTORE POP POP JUMP JUMPDEST PUSH0 PUSH2 0x5CF DUP4 DUP4 PUSH2 0x5B5 JUMP JUMPDEST PUSH1 0x20 DUP4 ADD SWAP1 POP SWAP3 SWAP2 POP POP JUMP JUMPDEST PUSH0 PUSH1 0x20 DUP3 ADD SWAP1 POP SWAP2 SWAP1 POP JUMP JUMPDEST PUSH2 0x5F0 DUP2 PUSH2 0x56D JUMP JUMPDEST PUSH2 0x5FA DUP2 DUP5 PUSH2 0x577 JUMP JUMPDEST SWAP3 POP PUSH2 0x605 DUP3 PUSH2 0x581 JUMP JUMPDEST DUP1 PUSH0 JUMPDEST DUP4 DUP2 LT ISZERO PUSH2 0x635 JUMPI DUP2 MLOAD PUSH2 0x61C DUP8 DUP3 PUSH2 0x5C4 JUMP JUMPDEST SWAP7 POP PUSH2 0x627 DUP4 PUSH2 0x5DB JUMP JUMPDEST SWAP3 POP POP PUSH1 0x1 DUP2 ADD SWAP1 POP PUSH2 0x608 JUMP JUMPDEST POP POP POP POP POP POP JUMP JUMPDEST PUSH0 DUP2 MLOAD SWAP1 POP SWAP2 SWAP1 POP JUMP JUMPDEST PUSH0 DUP3 DUP3 MSTORE PUSH1 0x20 DUP3 ADD SWAP1 POP SWAP3 SWAP2 POP POP JUMP JUMPDEST DUP3 DUP2 DUP4 MCOPY PUSH0 DUP4 DUP4 ADD MSTORE POP POP POP JUMP JUMPDEST PUSH0 PUSH1 0x1F NOT PUSH1 0x1F DUP4 ADD AND SWAP1 POP SWAP2 SWAP1 POP JUMP JUMPDEST PUSH0 PUSH2 0x67F DUP3 PUSH2 0x63D JUMP JUMPDEST PUSH2 0x689 DUP2 DUP6 PUSH2 0x647 JUMP JUMPDEST SWAP4 POP PUSH2 0x699 DUP2 DUP6 PUSH1 0x20 DUP7 ADD PUSH2 0x657 JUMP JUMPDEST PUSH2 0x6A2 DUP2 PUSH2 0x665 JUMP JUMPDEST DUP5 ADD SWAP2 POP POP SWAP3 SWAP2 POP POP JUMP JUMPDEST PUSH0 PUSH1 0xA0 DUP3 ADD SWAP1 POP PUSH2 0x6C0 PUSH0 DUP4 ADD DUP7 PUSH2 0x5E7 JUMP JUMPDEST DUP2 DUP2 SUB PUSH1 0x60 DUP4 ADD MSTORE PUSH2 0x6D2 DUP2 DUP6 PUSH2 0x675 JUMP JUMPDEST SWAP1 POP DUP2 DUP2 SUB PUSH1 0x80 DUP4 ADD MSTORE PUSH2 0x6E6 DUP2 DUP5 PUSH2 0x675 JUMP JUMPDEST SWAP1 POP SWAP5 SWAP4 POP POP POP POP JUMP JUMPDEST PUSH32 0x4E487B7100000000000000000000000000000000000000000000000000000000 PUSH0 MSTORE PUSH1 0x32 PUSH1 0x4 MSTORE PUSH1 0x24 PUSH0 REVERT JUMPDEST PUSH32 0x4E487B7100000000000000000000000000000000000000000000000000000000 PUSH0 MSTORE PUSH1 0x22 PUSH1 0x4 MSTORE PUSH1 0x24 PUSH0 REVERT JUMPDEST PUSH0 PUSH1 0x2 DUP3 DIV SWAP1 POP PUSH1 0x1 DUP3 AND DUP1 PUSH2 0x761 JUMPI PUSH1 0x7F DUP3 AND SWAP2 POP JUMPDEST PUSH1 0x20 DUP3 LT DUP2 SUB PUSH2 0x774 JUMPI PUSH2 0x773 PUSH2 0x71D JUMP JUMPDEST JUMPDEST POP SWAP2 SWAP1 POP JUMP INVALID LOG2 PUSH5 0x6970667358 0x22 SLT KECCAK256 PUSH31 0xE6240A1FE1E7B8ED26C4F5717098FA5FD009C24D5E72BE2B61E9A9DD4B14B8 PUSH5 0x736F6C6343 STOP ADDMOD BYTE STOP CALLER "
		},
		"gasEstimates": {
			"creation": {
				"codeDepositCost": "393600",
				"executionCost": "infinite",
				"totalCost": "infinite"
			},
			"external": {
				"getStorageArray()": "infinite",
				"getStorageArrayLength()": "2506",
				"pushToStorage()": "24455",
				"run()": "infinite",
				"storageArray(uint256)": "infinite"
			}
		},
		"methodIdentifiers": {
			"getStorageArray()": "25cc66f5",
			"getStorageArrayLength()": "ca394aba",
			"pushToStorage()": "771d1327",
			"run()": "c0406226",
			"storageArray(uint256)": "0e031ab1"
		}
	},
	"abi": [
		{
			"inputs": [],
			"name": "getStorageArray",
			"outputs": [
				{
					"internalType": "uint256[]",
					"name": "",
					"type": "uint256[]"
				}
			],
			"stateMutability": "view",
			"type": "function"
		},
		{
			"inputs": [],
			"name": "getStorageArrayLength",
			"outputs": [
				{
					"internalType": "uint256",
					"name": "",
					"type": "uint256"
				}
			],
			"stateMutability": "view",
			"type": "function"
		},
		{
			"inputs": [],
			"name": "pushToStorage",
			"outputs": [],
			"stateMutability": "nonpayable",
			"type": "function"
		},
		{
			"inputs": [],
			"name": "run",
			"outputs": [
				{
					"internalType": "bytes1[3]",
					"name": "array1",
					"type": "bytes1[3]"
				},
				{
					"internalType": "bytes",
					"name": "array3",
					"type": "bytes"
				},
				{
					"internalType": "bytes",
					"name": "array4",
					"type": "bytes"
				}
			],
			"stateMutability": "view",
			"type": "function"
		},
		{
			"inputs": [
				{
					"internalType": "uint256",
					"name": "",
					"type": "uint256"
				}
			],
			"name": "storageArray",
			"outputs": [
				{
					"internalType": "uint256",
					"name": "",
					"type": "uint256"
				}
			],
			"stateMutability": "view",
			"type": "function"
		}
	]
}